{
  "_format": "hh-sol-artifact-1",
  "contractName": "Parfait",
  "sourceName": "contracts/Parfait.sol",
  "abi": [
    {
      "anonymous": false,
      "inputs": [
        {
          "indexed": false,
          "internalType": "uint8",
          "name": "version",
          "type": "uint8"
        }
      ],
      "name": "Initialized",
      "type": "event"
    },
    {
      "inputs": [],
      "name": "CDAIAllocation",
      "outputs": [
        {
          "internalType": "int256",
          "name": "",
          "type": "int256"
        }
      ],
      "stateMutability": "view",
      "type": "function"
    },
    {
      "inputs": [],
      "name": "CETHAllocation",
      "outputs": [
        {
          "internalType": "int256",
          "name": "",
          "type": "int256"
        }
      ],
      "stateMutability": "view",
      "type": "function"
    },
    {
      "inputs": [],
      "name": "CWBTCAllocation",
      "outputs": [
        {
          "internalType": "int256",
          "name": "",
          "type": "int256"
        }
      ],
      "stateMutability": "view",
      "type": "function"
    },
    {
      "inputs": [],
      "name": "check0Balances",
      "outputs": [
        {
          "internalType": "int256",
          "name": "ETHBalance",
          "type": "int256"
        },
        {
          "internalType": "int256",
          "name": "WETHBalance",
          "type": "int256"
        },
        {
          "internalType": "int256",
          "name": "WBTCBalance",
          "type": "int256"
        },
        {
          "internalType": "int256",
          "name": "DAIBalance",
          "type": "int256"
        }
      ],
      "stateMutability": "view",
      "type": "function"
    },
    {
      "inputs": [],
      "name": "getBalances",
      "outputs": [
        {
          "internalType": "int256",
          "name": "ETHBalance",
          "type": "int256"
        },
        {
          "internalType": "int256",
          "name": "WBTCBalance",
          "type": "int256"
        },
        {
          "internalType": "int256",
          "name": "DAIBalance",
          "type": "int256"
        }
      ],
      "stateMutability": "view",
      "type": "function"
    },
    {
      "inputs": [],
      "name": "getPrices",
      "outputs": [
        {
          "internalType": "int256",
          "name": "ETHPrice",
          "type": "int256"
        },
        {
          "internalType": "int256",
          "name": "BTCPrice",
          "type": "int256"
        },
        {
          "internalType": "int256",
          "name": "DAIPrice",
          "type": "int256"
        }
      ],
      "stateMutability": "view",
      "type": "function"
    },
    {
      "inputs": [
        {
          "internalType": "address",
          "name": "_owner",
          "type": "address"
        },
        {
          "internalType": "int256",
          "name": "_CETHAllocation",
          "type": "int256"
        },
        {
          "internalType": "int256",
          "name": "_CWBTCAllocation",
          "type": "int256"
        },
        {
          "internalType": "int256",
          "name": "_CDAIAllocation",
          "type": "int256"
        }
      ],
      "name": "initialize",
      "outputs": [],
      "stateMutability": "payable",
      "type": "function"
    },
    {
      "inputs": [],
      "name": "owner",
      "outputs": [
        {
          "internalType": "address",
          "name": "",
          "type": "address"
        }
      ],
      "stateMutability": "view",
      "type": "function"
    },
    {
      "inputs": [],
      "name": "rebalance",
      "outputs": [],
      "stateMutability": "nonpayable",
      "type": "function"
    },
    {
      "inputs": [
        {
          "internalType": "int256",
          "name": "_CETHAllocation",
          "type": "int256"
        },
        {
          "internalType": "int256",
          "name": "_CWBTCAllocation",
          "type": "int256"
        },
        {
          "internalType": "int256",
          "name": "_CDAIAllocation",
          "type": "int256"
        }
      ],
      "name": "updateAllocations",
      "outputs": [],
      "stateMutability": "payable",
      "type": "function"
    },
    {
      "stateMutability": "payable",
      "type": "receive"
    }
  ],
  "bytecode": "0x608060405273d0a1e359811322d97991e03f863a0c30c2cf029c600460006101000a81548173ffffffffffffffffffffffffffffffffffffffff021916908373ffffffffffffffffffffffffffffffffffffffff16021790555073a0a5ad2296b38bd3e3eb59aaeaf1589e8d9a29a9600560006101000a81548173ffffffffffffffffffffffffffffffffffffffff021916908373ffffffffffffffffffffffffffffffffffffffff160217905550734f96fe3b7a6cf9725f59d353f723c1bdb64ca6aa600660006101000a81548173ffffffffffffffffffffffffffffffffffffffff021916908373ffffffffffffffffffffffffffffffffffffffff1602179055507341b5844f4680a8c38fbb695b7f9cfd1f64474a72600760006101000a81548173ffffffffffffffffffffffffffffffffffffffff021916908373ffffffffffffffffffffffffffffffffffffffff16021790555073a1faa15655b0e7b6b6470ed3d096390e6ad93abb600860006101000a81548173ffffffffffffffffffffffffffffffffffffffff021916908373ffffffffffffffffffffffffffffffffffffffff16021790555073f0d0eb522cfa50b716b3b1604c4f0fa6f04376ad600960006101000a81548173ffffffffffffffffffffffffffffffffffffffff021916908373ffffffffffffffffffffffffffffffffffffffff160217905550739326bfa02add2366b30bacb125260af641031331600a60006101000a81548173ffffffffffffffffffffffffffffffffffffffff021916908373ffffffffffffffffffffffffffffffffffffffff160217905550736135b13325bfc4b00278b4abc5e20bbce2d6580e600b60006101000a81548173ffffffffffffffffffffffffffffffffffffffff021916908373ffffffffffffffffffffffffffffffffffffffff16021790555073777a68032a88e5a84678a77af2cd65a7b3c0775a600c60006101000a81548173ffffffffffffffffffffffffffffffffffffffff021916908373ffffffffffffffffffffffffffffffffffffffff16021790555073e592427a0aece92de3edee1f18e0157c05861564600d60006101000a81548173ffffffffffffffffffffffffffffffffffffffff021916908373ffffffffffffffffffffffffffffffffffffffff16021790555034801561036257600080fd5b50612dfd806103726000396000f3fe6080604052600436106100945760003560e01c80637b9c5b8e116100595780637b9c5b8e1461016d5780637d7c2a1c146101895780638da5cb5b146101a057806390d6e817146101cb578063bd9a548b146101f65761009b565b8062113e08146100a057806355e437da146100cd5780636446f941146100f857806366e4f7931461011457806378d7a493146101425761009b565b3661009b57005b600080fd5b3480156100ac57600080fd5b506100b5610223565b6040516100c4939291906126ba565b60405180910390f35b3480156100d957600080fd5b506100e261067b565b6040516100ef919061269f565b60405180910390f35b610112600480360381019061010d919061237e565b610681565b005b34801561012057600080fd5b50610129610784565b60405161013994939291906126f1565b60405180910390f35b34801561014e57600080fd5b5061015761099a565b604051610164919061269f565b60405180910390f35b610187600480360381019061018291906122f2565b6109a0565b005b34801561019557600080fd5b5061019e610adf565b005b3480156101ac57600080fd5b506101b5611dc9565b6040516101c2919061265b565b60405180910390f35b3480156101d757600080fd5b506101e0611def565b6040516101ed919061269f565b60405180910390f35b34801561020257600080fd5b5061020b611df5565b60405161021a939291906126ba565b60405180910390f35b6000806000670de0b6b3a7640000600760009054906101000a900473ffffffffffffffffffffffffffffffffffffffff1673ffffffffffffffffffffffffffffffffffffffff1663182df0f56040518163ffffffff1660e01b815260040160206040518083038186803b15801561029957600080fd5b505afa1580156102ad573d6000803e3d6000fd5b505050506040513d601f19601f820116820180604052508101906102d191906123cd565b6102db919061292d565b600760009054906101000a900473ffffffffffffffffffffffffffffffffffffffff1673ffffffffffffffffffffffffffffffffffffffff166370a08231306040518263ffffffff1660e01b8152600401610336919061265b565b60206040518083038186803b15801561034e57600080fd5b505afa158015610362573d6000803e3d6000fd5b505050506040513d601f19601f8201168201806040525081019061038691906123cd565b6103909190612a75565b92506402540be400670de0b6b3a7640000600860009054906101000a900473ffffffffffffffffffffffffffffffffffffffff1673ffffffffffffffffffffffffffffffffffffffff1663182df0f56040518163ffffffff1660e01b815260040160206040518083038186803b15801561040957600080fd5b505afa15801561041d573d6000803e3d6000fd5b505050506040513d601f19601f8201168201806040525081019061044191906123cd565b61044b919061292d565b600860009054906101000a900473ffffffffffffffffffffffffffffffffffffffff1673ffffffffffffffffffffffffffffffffffffffff166370a08231306040518263ffffffff1660e01b81526004016104a6919061265b565b60206040518083038186803b1580156104be57600080fd5b505afa1580156104d2573d6000803e3d6000fd5b505050506040513d601f19601f820116820180604052508101906104f691906123cd565b6105009190612a75565b61050a919061295e565b9150670de0b6b3a7640000600960009054906101000a900473ffffffffffffffffffffffffffffffffffffffff1673ffffffffffffffffffffffffffffffffffffffff1663182df0f56040518163ffffffff1660e01b815260040160206040518083038186803b15801561057d57600080fd5b505afa158015610591573d6000803e3d6000fd5b505050506040513d601f19601f820116820180604052508101906105b591906123cd565b6105bf919061292d565b600960009054906101000a900473ffffffffffffffffffffffffffffffffffffffff1673ffffffffffffffffffffffffffffffffffffffff166370a08231306040518263ffffffff1660e01b815260040161061a919061265b565b60206040518083038186803b15801561063257600080fd5b505afa158015610646573d6000803e3d6000fd5b505050506040513d601f19601f8201168201806040525081019061066a91906123cd565b6106749190612a75565b9050909192565b60015481565b600060029054906101000a900473ffffffffffffffffffffffffffffffffffffffff1673ffffffffffffffffffffffffffffffffffffffff163373ffffffffffffffffffffffffffffffffffffffff1614610711576040517f08c379a000000000000000000000000000000000000000000000000000000000815260040161070890612771565b60405180910390fd5b6064818385610720919061282f565b61072a919061282f565b1461076a576040517f08c379a000000000000000000000000000000000000000000000000000000000815260040161076190612791565b60405180910390fd5b826001819055508160028190555080600381905550505050565b600080600080479350600460009054906101000a900473ffffffffffffffffffffffffffffffffffffffff1673ffffffffffffffffffffffffffffffffffffffff166370a08231306040518263ffffffff1660e01b81526004016107e8919061265b565b60206040518083038186803b15801561080057600080fd5b505afa158015610814573d6000803e3d6000fd5b505050506040513d601f19601f8201168201806040525081019061083891906123cd565b9250600560009054906101000a900473ffffffffffffffffffffffffffffffffffffffff1673ffffffffffffffffffffffffffffffffffffffff166370a08231306040518263ffffffff1660e01b8152600401610895919061265b565b60206040518083038186803b1580156108ad57600080fd5b505afa1580156108c1573d6000803e3d6000fd5b505050506040513d601f19601f820116820180604052508101906108e591906123cd565b9150600660009054906101000a900473ffffffffffffffffffffffffffffffffffffffff1673ffffffffffffffffffffffffffffffffffffffff166370a08231306040518263ffffffff1660e01b8152600401610942919061265b565b60206040518083038186803b15801561095a57600080fd5b505afa15801561096e573d6000803e3d6000fd5b505050506040513d601f19601f8201168201806040525081019061099291906123cd565b905090919293565b60035481565b60006109ac600161200c565b905080156109d0576001600060016101000a81548160ff0219169083151502179055505b60648284866109df919061282f565b6109e9919061282f565b14610a29576040517f08c379a0000000000000000000000000000000000000000000000000000000008152600401610a2090612791565b60405180910390fd5b84600060026101000a81548173ffffffffffffffffffffffffffffffffffffffff021916908373ffffffffffffffffffffffffffffffffffffffff1602179055508360018190555082600281905550816003819055508015610ad85760008060016101000a81548160ff0219169083151502179055507f7f26b83ff96e1f2b6a682f133852f6798a09c465da95921460cefb38474024986001604051610acf9190612736565b60405180910390a15b5050505050565b600060029054906101000a900473ffffffffffffffffffffffffffffffffffffffff1673ffffffffffffffffffffffffffffffffffffffff163373ffffffffffffffffffffffffffffffffffffffff1614610b6f576040517f08c379a0000000000000000000000000000000000000000000000000000000008152600401610b6690612771565b60405180910390fd5b6000806000610b7c610223565b9250925092506000806000610b8f611df5565b92509250925060008387610ba3919061295e565b905060008387610bb3919061295e565b905060008387610bc3919061295e565b90506000818385610bd4919061282f565b610bde919061282f565b9050600084606460015484610bf3919061295e565b610bfd91906128c3565b610c079190612acf565b9050600084606460025485610c1c919061295e565b610c2691906128c3565b610c309190612acf565b9050600084606460035486610c45919061295e565b610c4f91906128c3565b610c599190612acf565b90506000604051806101000160405280600073ffffffffffffffffffffffffffffffffffffffff168152602001600073ffffffffffffffffffffffffffffffffffffffff168152602001610bb862ffffff1681526020013373ffffffffffffffffffffffffffffffffffffffff1681526020014281526020016000815260200160008152602001600073ffffffffffffffffffffffffffffffffffffffff1681525090506000841215610e5457600760009054906101000a900473ffffffffffffffffffffffffffffffffffffffff1673ffffffffffffffffffffffffffffffffffffffff1663852a12e38c86610d5091906128c3565b6040518263ffffffff1660e01b8152600401610d6c91906127ed565b602060405180830381600087803b158015610d8657600080fd5b505af1158015610d9a573d6000803e3d6000fd5b505050506040513d601f19601f82011682018060405250810190610dbe91906123cd565b50600460009054906101000a900473ffffffffffffffffffffffffffffffffffffffff1673ffffffffffffffffffffffffffffffffffffffff1663d0e30db08c86610e0991906128c3565b6203d090906040518363ffffffff1660e01b81526004016000604051808303818589803b158015610e3957600080fd5b5088f1158015610e4d573d6000803e3d6000fd5b5050505050505b600083121561123657600860009054906101000a900473ffffffffffffffffffffffffffffffffffffffff1673ffffffffffffffffffffffffffffffffffffffff1663852a12e36402540be4008c610eac919061295e565b85610eb791906128c3565b6040518263ffffffff1660e01b8152600401610ed391906127ed565b602060405180830381600087803b158015610eed57600080fd5b505af1158015610f01573d6000803e3d6000fd5b505050506040513d601f19601f82011682018060405250810190610f2591906123cd565b5061101f600560009054906101000a900473ffffffffffffffffffffffffffffffffffffffff16600d60009054906101000a900473ffffffffffffffffffffffffffffffffffffffff16600560009054906101000a900473ffffffffffffffffffffffffffffffffffffffff1673ffffffffffffffffffffffffffffffffffffffff166370a08231306040518263ffffffff1660e01b8152600401610fca919061265b565b60206040518083038186803b158015610fe257600080fd5b505afa158015610ff6573d6000803e3d6000fd5b505050506040513d601f19601f8201168201806040525081019061101a91906123cd565b6120fc565b600560009054906101000a900473ffffffffffffffffffffffffffffffffffffffff16816000019073ffffffffffffffffffffffffffffffffffffffff16908173ffffffffffffffffffffffffffffffffffffffff1681525050600460009054906101000a900473ffffffffffffffffffffffffffffffffffffffff16816020019073ffffffffffffffffffffffffffffffffffffffff16908173ffffffffffffffffffffffffffffffffffffffff1681525050600560009054906101000a900473ffffffffffffffffffffffffffffffffffffffff1673ffffffffffffffffffffffffffffffffffffffff166370a08231306040518263ffffffff1660e01b815260040161112e919061265b565b60206040518083038186803b15801561114657600080fd5b505afa15801561115a573d6000803e3d6000fd5b505050506040513d601f19601f8201168201806040525081019061117e91906123cd565b8160a0018181525050600d60009054906101000a900473ffffffffffffffffffffffffffffffffffffffff1673ffffffffffffffffffffffffffffffffffffffff1663414bf389826040518263ffffffff1660e01b81526004016111e291906127d1565b602060405180830381600087803b1580156111fc57600080fd5b505af1158015611210573d6000803e3d6000fd5b505050506040513d601f19601f8201168201806040525081019061123491906123cd565b505b600082121561160857600960009054906101000a900473ffffffffffffffffffffffffffffffffffffffff1673ffffffffffffffffffffffffffffffffffffffff1663852a12e38a8461128991906128c3565b6040518263ffffffff1660e01b81526004016112a591906127ed565b602060405180830381600087803b1580156112bf57600080fd5b505af11580156112d3573d6000803e3d6000fd5b505050506040513d601f19601f820116820180604052508101906112f791906123cd565b506113f1600660009054906101000a900473ffffffffffffffffffffffffffffffffffffffff16600d60009054906101000a900473ffffffffffffffffffffffffffffffffffffffff16600660009054906101000a900473ffffffffffffffffffffffffffffffffffffffff1673ffffffffffffffffffffffffffffffffffffffff166370a08231306040518263ffffffff1660e01b815260040161139c919061265b565b60206040518083038186803b1580156113b457600080fd5b505afa1580156113c8573d6000803e3d6000fd5b505050506040513d601f19601f820116820180604052508101906113ec91906123cd565b6120fc565b600660009054906101000a900473ffffffffffffffffffffffffffffffffffffffff16816000019073ffffffffffffffffffffffffffffffffffffffff16908173ffffffffffffffffffffffffffffffffffffffff1681525050600460009054906101000a900473ffffffffffffffffffffffffffffffffffffffff16816020019073ffffffffffffffffffffffffffffffffffffffff16908173ffffffffffffffffffffffffffffffffffffffff1681525050600660009054906101000a900473ffffffffffffffffffffffffffffffffffffffff1673ffffffffffffffffffffffffffffffffffffffff166370a08231306040518263ffffffff1660e01b8152600401611500919061265b565b60206040518083038186803b15801561151857600080fd5b505afa15801561152c573d6000803e3d6000fd5b505050506040513d601f19601f8201168201806040525081019061155091906123cd565b8160a0018181525050600d60009054906101000a900473ffffffffffffffffffffffffffffffffffffffff1673ffffffffffffffffffffffffffffffffffffffff1663414bf389826040518263ffffffff1660e01b81526004016115b491906127d1565b602060405180830381600087803b1580156115ce57600080fd5b505af11580156115e2573d6000803e3d6000fd5b505050506040513d601f19601f8201168201806040525081019061160691906123cd565b505b600084131561173357600460009054906101000a900473ffffffffffffffffffffffffffffffffffffffff1673ffffffffffffffffffffffffffffffffffffffff16632e1a7d4d8c8661165b91906128c3565b6040518263ffffffff1660e01b815260040161167791906127ed565b600060405180830381600087803b15801561169157600080fd5b505af11580156116a5573d6000803e3d6000fd5b50505050600760009054906101000a900473ffffffffffffffffffffffffffffffffffffffff1673ffffffffffffffffffffffffffffffffffffffff16631249c58b476203d090906040518363ffffffff1660e01b81526004016000604051808303818589803b15801561171857600080fd5b5088f115801561172c573d6000803e3d6000fd5b5050505050505b6000831315611a86576117a6600460009054906101000a900473ffffffffffffffffffffffffffffffffffffffff16600d60009054906101000a900473ffffffffffffffffffffffffffffffffffffffff166402540be4008d611796919061295e565b866117a191906128c3565b6120fc565b600460009054906101000a900473ffffffffffffffffffffffffffffffffffffffff16816000019073ffffffffffffffffffffffffffffffffffffffff16908173ffffffffffffffffffffffffffffffffffffffff1681525050600560009054906101000a900473ffffffffffffffffffffffffffffffffffffffff16816020019073ffffffffffffffffffffffffffffffffffffffff16908173ffffffffffffffffffffffffffffffffffffffff16815250506402540be4008a61186b919061295e565b8361187691906128c3565b8160a0018181525050600d60009054906101000a900473ffffffffffffffffffffffffffffffffffffffff1673ffffffffffffffffffffffffffffffffffffffff1663414bf389826040518263ffffffff1660e01b81526004016118da91906127d1565b602060405180830381600087803b1580156118f457600080fd5b505af1158015611908573d6000803e3d6000fd5b505050506040513d601f19601f8201168201806040525081019061192c91906123cd565b50600860009054906101000a900473ffffffffffffffffffffffffffffffffffffffff1673ffffffffffffffffffffffffffffffffffffffff1663a0712d68600560009054906101000a900473ffffffffffffffffffffffffffffffffffffffff1673ffffffffffffffffffffffffffffffffffffffff166370a08231306040518263ffffffff1660e01b81526004016119c6919061265b565b60206040518083038186803b1580156119de57600080fd5b505afa1580156119f2573d6000803e3d6000fd5b505050506040513d601f19601f82011682018060405250810190611a1691906123cd565b6040518263ffffffff1660e01b8152600401611a3291906127ed565b602060405180830381600087803b158015611a4c57600080fd5b505af1158015611a60573d6000803e3d6000fd5b505050506040513d601f19601f82011682018060405250810190611a8491906123cd565b505b6000821315611db957611ae9600460009054906101000a900473ffffffffffffffffffffffffffffffffffffffff16600d60009054906101000a900473ffffffffffffffffffffffffffffffffffffffff168b85611ae491906128c3565b6120fc565b600460009054906101000a900473ffffffffffffffffffffffffffffffffffffffff16816000019073ffffffffffffffffffffffffffffffffffffffff16908173ffffffffffffffffffffffffffffffffffffffff1681525050600660009054906101000a900473ffffffffffffffffffffffffffffffffffffffff16816020019073ffffffffffffffffffffffffffffffffffffffff16908173ffffffffffffffffffffffffffffffffffffffff16815250508882611ba991906128c3565b8160a0018181525050600d60009054906101000a900473ffffffffffffffffffffffffffffffffffffffff1673ffffffffffffffffffffffffffffffffffffffff1663414bf389826040518263ffffffff1660e01b8152600401611c0d91906127d1565b602060405180830381600087803b158015611c2757600080fd5b505af1158015611c3b573d6000803e3d6000fd5b505050506040513d601f19601f82011682018060405250810190611c5f91906123cd565b50600960009054906101000a900473ffffffffffffffffffffffffffffffffffffffff1673ffffffffffffffffffffffffffffffffffffffff1663a0712d68600660009054906101000a900473ffffffffffffffffffffffffffffffffffffffff1673ffffffffffffffffffffffffffffffffffffffff166370a08231306040518263ffffffff1660e01b8152600401611cf9919061265b565b60206040518083038186803b158015611d1157600080fd5b505afa158015611d25573d6000803e3d6000fd5b505050506040513d601f19601f82011682018060405250810190611d4991906123cd565b6040518263ffffffff1660e01b8152600401611d6591906127ed565b602060405180830381600087803b158015611d7f57600080fd5b505af1158015611d93573d6000803e3d6000fd5b505050506040513d601f19601f82011682018060405250810190611db791906123cd565b505b5050505050505050505050505050565b600060029054906101000a900473ffffffffffffffffffffffffffffffffffffffff1681565b60025481565b6000806000600a60009054906101000a900473ffffffffffffffffffffffffffffffffffffffff1673ffffffffffffffffffffffffffffffffffffffff1663feaf968c6040518163ffffffff1660e01b815260040160a06040518083038186803b158015611e6257600080fd5b505afa158015611e76573d6000803e3d6000fd5b505050506040513d601f19601f82011682018060405250810190611e9a91906123f6565b909192935090915090505080935050600b60009054906101000a900473ffffffffffffffffffffffffffffffffffffffff1673ffffffffffffffffffffffffffffffffffffffff1663feaf968c6040518163ffffffff1660e01b815260040160a06040518083038186803b158015611f1157600080fd5b505afa158015611f25573d6000803e3d6000fd5b505050506040513d601f19601f82011682018060405250810190611f4991906123f6565b909192935090915090505080925050600c60009054906101000a900473ffffffffffffffffffffffffffffffffffffffff1673ffffffffffffffffffffffffffffffffffffffff1663feaf968c6040518163ffffffff1660e01b815260040160a06040518083038186803b158015611fc057600080fd5b505afa158015611fd4573d6000803e3d6000fd5b505050506040513d601f19601f82011682018060405250810190611ff891906123f6565b909192935090915090505080915050909192565b60008060019054906101000a900460ff16156120835760018260ff1614801561203b575061203930612251565b155b61207a576040517f08c379a0000000000000000000000000000000000000000000000000000000008152600401612071906127b1565b60405180910390fd5b600090506120f7565b8160ff1660008054906101000a900460ff1660ff16106120d8576040517f08c379a00000000000000000000000000000000000000000000000000000000081526004016120cf906127b1565b60405180910390fd5b816000806101000a81548160ff021916908360ff160217905550600190505b919050565b6000808473ffffffffffffffffffffffffffffffffffffffff1663095ea7b360e01b8585604051602401612131929190612676565b604051602081830303815290604052907bffffffffffffffffffffffffffffffffffffffffffffffffffffffff19166020820180517bffffffffffffffffffffffffffffffffffffffffffffffffffffffff838183161783525050505060405161219b9190612644565b6000604051808303816000865af19150503d80600081146121d8576040519150601f19603f3d011682016040523d82523d6000602084013e6121dd565b606091505b509150915081801561220b575060008151148061220a5750808060200190518101906122099190612355565b5b5b61224a576040517f08c379a000000000000000000000000000000000000000000000000000000000815260040161224190612751565b60405180910390fd5b5050505050565b6000808273ffffffffffffffffffffffffffffffffffffffff163b119050919050565b60008135905061228381612d54565b92915050565b60008151905061229881612d6b565b92915050565b6000813590506122ad81612d82565b92915050565b6000815190506122c281612d82565b92915050565b6000815190506122d781612d99565b92915050565b6000815190506122ec81612db0565b92915050565b6000806000806080858703121561230857600080fd5b600061231687828801612274565b94505060206123278782880161229e565b93505060406123388782880161229e565b92505060606123498782880161229e565b91505092959194509250565b60006020828403121561236757600080fd5b600061237584828501612289565b91505092915050565b60008060006060848603121561239357600080fd5b60006123a18682870161229e565b93505060206123b28682870161229e565b92505060406123c38682870161229e565b9150509250925092565b6000602082840312156123df57600080fd5b60006123ed848285016122c8565b91505092915050565b600080600080600060a0868803121561240e57600080fd5b600061241c888289016122dd565b955050602061242d888289016122b3565b945050604061243e888289016122c8565b935050606061244f888289016122c8565b9250506080612460888289016122dd565b9150509295509295909350565b61247681612b63565b82525050565b61248581612b63565b82525050565b600061249682612808565b6124a08185612813565b93506124b0818560208601612bf9565b80840191505092915050565b6124c581612b81565b82525050565b6124d481612be7565b82525050565b60006124e760028361281e565b91506124f282612c8a565b602082019050919050565b600061250a60188361281e565b915061251582612cb3565b602082019050919050565b600061252d60178361281e565b915061253882612cdc565b602082019050919050565b6000612550602e8361281e565b915061255b82612d05565b604082019050919050565b6101008201600082015161257d600085018261246d565b506020820151612590602085018261246d565b5060408201516125a36040850182612617565b5060608201516125b6606085018261246d565b5060808201516125c96080850182612626565b5060a08201516125dc60a0850182612626565b5060c08201516125ef60c0850182612626565b5060e082015161260260e0850182612608565b50505050565b61261181612b8b565b82525050565b61262081612bab565b82525050565b61262f81612bba565b82525050565b61263e81612bba565b82525050565b6000612650828461248b565b915081905092915050565b6000602082019050612670600083018461247c565b92915050565b600060408201905061268b600083018561247c565b6126986020830184612635565b9392505050565b60006020820190506126b460008301846124bc565b92915050565b60006060820190506126cf60008301866124bc565b6126dc60208301856124bc565b6126e960408301846124bc565b949350505050565b600060808201905061270660008301876124bc565b61271360208301866124bc565b61272060408301856124bc565b61272d60608301846124bc565b95945050505050565b600060208201905061274b60008301846124cb565b92915050565b6000602082019050818103600083015261276a816124da565b9050919050565b6000602082019050818103600083015261278a816124fd565b9050919050565b600060208201905081810360008301526127aa81612520565b9050919050565b600060208201905081810360008301526127ca81612543565b9050919050565b6000610100820190506127e76000830184612566565b92915050565b60006020820190506128026000830184612635565b92915050565b600081519050919050565b600081905092915050565b600082825260208201905092915050565b600061283a82612b81565b915061284583612b81565b9250817f7fffffffffffffffffffffffffffffffffffffffffffffffffffffffffffffff038313600083121516156128805761287f612c2c565b5b817f80000000000000000000000000000000000000000000000000000000000000000383126000831216156128b8576128b7612c2c565b5b828201905092915050565b60006128ce82612b81565b91506128d983612b81565b9250826128e9576128e8612c5b565b5b600160000383147f80000000000000000000000000000000000000000000000000000000000000008314161561292257612921612c2c565b5b828205905092915050565b600061293882612bba565b915061294383612bba565b92508261295357612952612c5b565b5b828204905092915050565b600061296982612b81565b915061297483612b81565b9250827f7fffffffffffffffffffffffffffffffffffffffffffffffffffffffffffffff04821160008413600084131616156129b3576129b2612c2c565b5b817f800000000000000000000000000000000000000000000000000000000000000005831260008412600084131616156129f0576129ef612c2c565b5b827f80000000000000000000000000000000000000000000000000000000000000000582126000841360008412161615612a2d57612a2c612c2c565b5b827f7fffffffffffffffffffffffffffffffffffffffffffffffffffffffffffffff0582126000841260008412161615612a6a57612a69612c2c565b5b828202905092915050565b6000612a8082612bba565b9150612a8b83612bba565b9250817fffffffffffffffffffffffffffffffffffffffffffffffffffffffffffffffff0483118215151615612ac457612ac3612c2c565b5b828202905092915050565b6000612ada82612b81565b9150612ae583612b81565b9250827f800000000000000000000000000000000000000000000000000000000000000001821260008412151615612b2057612b1f612c2c565b5b827f7fffffffffffffffffffffffffffffffffffffffffffffffffffffffffffffff018213600084121615612b5857612b57612c2c565b5b828203905092915050565b6000612b6e82612b8b565b9050919050565b60008115159050919050565b6000819050919050565b600073ffffffffffffffffffffffffffffffffffffffff82169050919050565b600062ffffff82169050919050565b6000819050919050565b600060ff82169050919050565b600069ffffffffffffffffffff82169050919050565b6000612bf282612bc4565b9050919050565b60005b83811015612c17578082015181840152602081019050612bfc565b83811115612c26576000848401525b50505050565b7f4e487b7100000000000000000000000000000000000000000000000000000000600052601160045260246000fd5b7f4e487b7100000000000000000000000000000000000000000000000000000000600052601260045260246000fd5b7f5341000000000000000000000000000000000000000000000000000000000000600082015250565b7f6f6e6c79206f776e65722063616e2063616c6c20746869730000000000000000600082015250565b7f696e76616c696420616c6c6f636174696f6e732073756d000000000000000000600082015250565b7f496e697469616c697a61626c653a20636f6e747261637420697320616c72656160008201527f647920696e697469616c697a6564000000000000000000000000000000000000602082015250565b612d5d81612b63565b8114612d6857600080fd5b50565b612d7481612b75565b8114612d7f57600080fd5b50565b612d8b81612b81565b8114612d9657600080fd5b50565b612da281612bba565b8114612dad57600080fd5b50565b612db981612bd1565b8114612dc457600080fd5b5056fea264697066735822122027ca8dd7e7e39b124e6f4e09a3b66f3449948aae1035a4dd1f77c0662a9ca29f64736f6c63430008040033",
  "linkReferences": {},
  "deployedLinkReferences": {}
}