{
  "_format": "hh-sol-artifact-1",
  "contractName": "Parfait",
  "sourceName": "contracts/Parfait.sol",
  "abi": [
    {
      "anonymous": false,
      "inputs": [
        {
          "indexed": false,
          "internalType": "uint8",
          "name": "version",
          "type": "uint8"
        }
      ],
      "name": "Initialized",
      "type": "event"
    },
    {
      "inputs": [],
      "name": "CDAIAllocation",
      "outputs": [
        {
          "internalType": "int256",
          "name": "",
          "type": "int256"
        }
      ],
      "stateMutability": "view",
      "type": "function"
    },
    {
      "inputs": [],
      "name": "CETHAllocation",
      "outputs": [
        {
          "internalType": "int256",
          "name": "",
          "type": "int256"
        }
      ],
      "stateMutability": "view",
      "type": "function"
    },
    {
      "inputs": [],
      "name": "CWBTCAllocation",
      "outputs": [
        {
          "internalType": "int256",
          "name": "",
          "type": "int256"
        }
      ],
      "stateMutability": "view",
      "type": "function"
    },
    {
      "inputs": [],
      "name": "check0Balances",
      "outputs": [
        {
          "internalType": "int256",
          "name": "ETHBalance",
          "type": "int256"
        },
        {
          "internalType": "int256",
          "name": "WETHBalance",
          "type": "int256"
        },
        {
          "internalType": "int256",
          "name": "WBTCBalance",
          "type": "int256"
        },
        {
          "internalType": "int256",
          "name": "DAIBalance",
          "type": "int256"
        }
      ],
      "stateMutability": "view",
      "type": "function"
    },
    {
      "inputs": [],
      "name": "getBalances",
      "outputs": [
        {
          "internalType": "int256",
          "name": "ETHBalance",
          "type": "int256"
        },
        {
          "internalType": "int256",
          "name": "WBTCBalance",
          "type": "int256"
        },
        {
          "internalType": "int256",
          "name": "DAIBalance",
          "type": "int256"
        }
      ],
      "stateMutability": "view",
      "type": "function"
    },
    {
      "inputs": [],
      "name": "getPrices",
      "outputs": [
        {
          "internalType": "int256",
          "name": "ETHPrice",
          "type": "int256"
        },
        {
          "internalType": "int256",
          "name": "BTCPrice",
          "type": "int256"
        },
        {
          "internalType": "int256",
          "name": "DAIPrice",
          "type": "int256"
        }
      ],
      "stateMutability": "view",
      "type": "function"
    },
    {
      "inputs": [],
      "name": "getValues",
      "outputs": [
        {
          "internalType": "int256",
          "name": "ETHValue",
          "type": "int256"
        },
        {
          "internalType": "int256",
          "name": "BTCValue",
          "type": "int256"
        },
        {
          "internalType": "int256",
          "name": "DAIValue",
          "type": "int256"
        },
        {
          "internalType": "int256",
          "name": "totalValue",
          "type": "int256"
        }
      ],
      "stateMutability": "view",
      "type": "function"
    },
    {
      "inputs": [
        {
          "internalType": "address",
          "name": "_owner",
          "type": "address"
        },
        {
          "internalType": "int256",
          "name": "_CETHAllocation",
          "type": "int256"
        },
        {
          "internalType": "int256",
          "name": "_CWBTCAllocation",
          "type": "int256"
        },
        {
          "internalType": "int256",
          "name": "_CDAIAllocation",
          "type": "int256"
        }
      ],
      "name": "initialize",
      "outputs": [],
      "stateMutability": "payable",
      "type": "function"
    },
    {
      "inputs": [],
      "name": "owner",
      "outputs": [
        {
          "internalType": "address",
          "name": "",
          "type": "address"
        }
      ],
      "stateMutability": "view",
      "type": "function"
    },
    {
      "inputs": [
        {
          "internalType": "int256",
          "name": "_CETHAllocation",
          "type": "int256"
        },
        {
          "internalType": "int256",
          "name": "_CWBTCAllocation",
          "type": "int256"
        },
        {
          "internalType": "int256",
          "name": "_CDAIAllocation",
          "type": "int256"
        }
      ],
      "name": "updateAllocationsAndRebalance",
      "outputs": [],
      "stateMutability": "payable",
      "type": "function"
    },
    {
      "inputs": [],
      "name": "withdraw",
      "outputs": [],
      "stateMutability": "nonpayable",
      "type": "function"
    },
    {
      "stateMutability": "payable",
      "type": "receive"
    }
  ],
  "bytecode": "0x608060405234801561001057600080fd5b5061377a806100206000396000f3fe60806040526004361061009f5760003560e01c806378d7a4931161006457806378d7a493146101765780637b9c5b8e146101a15780638da5cb5b146101bd57806390d6e817146101e8578063b53c4a0414610213578063bd9a548b1461022f576100a6565b8062113e08146100ab57806319eb4a90146100d85780633ccfd60b1461010657806355e437da1461011d57806366e4f79314610148576100a6565b366100a657005b600080fd5b3480156100b757600080fd5b506100c061025c565b6040516100cf939291906130e9565b60405180910390f35b3480156100e457600080fd5b506100ed61065e565b6040516100fd9493929190613120565b60405180910390f35b34801561011257600080fd5b5061011b6106d9565b005b34801561012957600080fd5b50610132610a20565b60405161013f91906130ce565b60405180910390f35b34801561015457600080fd5b5061015d610a26565b60405161016d9493929190613120565b60405180910390f35b34801561018257600080fd5b5061018b610c12565b60405161019891906130ce565b60405180910390f35b6101bb60048036038101906101b69190612cc6565b610c18565b005b3480156101c957600080fd5b506101d26117b0565b6040516101df919061308a565b60405180910390f35b3480156101f457600080fd5b506101fd6117d6565b60405161020a91906130ce565b60405180910390f35b61022d60048036038101906102289190612d52565b6117dc565b005b34801561023b57600080fd5b50610244611974565b604051610253939291906130e9565b60405180910390f35b6000806000670de0b6b3a764000073d6801a1dffcd0a410336ef88def4320d6df1883e73ffffffffffffffffffffffffffffffffffffffff1663182df0f56040518163ffffffff1660e01b815260040160206040518083038186803b1580156102c457600080fd5b505afa1580156102d8573d6000803e3d6000fd5b505050506040513d601f19601f820116820180604052508101906102fc9190612da1565b73d6801a1dffcd0a410336ef88def4320d6df1883e73ffffffffffffffffffffffffffffffffffffffff166370a08231306040518263ffffffff1660e01b8152600401610349919061308a565b60206040518083038186803b15801561036157600080fd5b505afa158015610375573d6000803e3d6000fd5b505050506040513d601f19601f820116820180604052508101906103999190612da1565b6103a3919061345a565b6103ad9190613312565b92506402540be400670de0b6b3a76400007214f450b8ae7708593f4a46f8fa6e5d50620f9673ffffffffffffffffffffffffffffffffffffffff1663182df0f56040518163ffffffff1660e01b815260040160206040518083038186803b15801561041757600080fd5b505afa15801561042b573d6000803e3d6000fd5b505050506040513d601f19601f8201168201806040525081019061044f9190612da1565b7214f450b8ae7708593f4a46f8fa6e5d50620f9673ffffffffffffffffffffffffffffffffffffffff166370a08231306040518263ffffffff1660e01b815260040161049b919061308a565b60206040518083038186803b1580156104b357600080fd5b505afa1580156104c7573d6000803e3d6000fd5b505050506040513d601f19601f820116820180604052508101906104eb9190612da1565b6104f5919061345a565b6104ff9190613312565b6105099190613343565b9150670de0b6b3a7640000736d7f0754ffeb405d23c51ce938289d4835be3b1473ffffffffffffffffffffffffffffffffffffffff1663182df0f56040518163ffffffff1660e01b815260040160206040518083038186803b15801561056e57600080fd5b505afa158015610582573d6000803e3d6000fd5b505050506040513d601f19601f820116820180604052508101906105a69190612da1565b736d7f0754ffeb405d23c51ce938289d4835be3b1473ffffffffffffffffffffffffffffffffffffffff166370a08231306040518263ffffffff1660e01b81526004016105f3919061308a565b60206040518083038186803b15801561060b57600080fd5b505afa15801561061f573d6000803e3d6000fd5b505050506040513d601f19601f820116820180604052508101906106439190612da1565b61064d919061345a565b6106579190613312565b9050909192565b600080600080600080600061067161025c565b9250925092506000806000610684611974565b92509250925082866106969190613343565b995081856106a49190613343565b985080846106b29190613343565b975087898b6106c1919061327e565b6106cb919061327e565b965050505050505090919293565b600060029054906101000a900473ffffffffffffffffffffffffffffffffffffffff1673ffffffffffffffffffffffffffffffffffffffff163373ffffffffffffffffffffffffffffffffffffffff1614610769576040517f08c379a0000000000000000000000000000000000000000000000000000000008152600401610760906131c0565b60405180910390fd5b610771611b61565b600073c778417e063141139fce010982780140aa0cd5ab73ffffffffffffffffffffffffffffffffffffffff166370a08231306040518263ffffffff1660e01b81526004016107c0919061308a565b60206040518083038186803b1580156107d857600080fd5b505afa1580156107ec573d6000803e3d6000fd5b505050506040513d601f19601f820116820180604052508101906108109190612da1565b905060008111156109375773c778417e063141139fce010982780140aa0cd5ab73ffffffffffffffffffffffffffffffffffffffff16632e1a7d4d73c778417e063141139fce010982780140aa0cd5ab73ffffffffffffffffffffffffffffffffffffffff166370a08231306040518263ffffffff1660e01b8152600401610898919061308a565b60206040518083038186803b1580156108b057600080fd5b505afa1580156108c4573d6000803e3d6000fd5b505050506040513d601f19601f820116820180604052508101906108e89190612da1565b6040518263ffffffff1660e01b8152600401610904919061323c565b600060405180830381600087803b15801561091e57600080fd5b505af1158015610932573d6000803e3d6000fd5b505050505b60008060029054906101000a900473ffffffffffffffffffffffffffffffffffffffff1673ffffffffffffffffffffffffffffffffffffffff164760405161097e90613075565b60006040518083038185875af1925050503d80600081146109bb576040519150601f19603f3d011682016040523d82523d6000602084013e6109c0565b606091505b5050905080610a04576040517f08c379a00000000000000000000000000000000000000000000000000000000081526004016109fb906131a0565b60405180910390fd5b6000600181905550600060028190555060006003819055505050565b60015481565b60008060008047935073c778417e063141139fce010982780140aa0cd5ab73ffffffffffffffffffffffffffffffffffffffff166370a08231306040518263ffffffff1660e01b8152600401610a7c919061308a565b60206040518083038186803b158015610a9457600080fd5b505afa158015610aa8573d6000803e3d6000fd5b505050506040513d601f19601f82011682018060405250810190610acc9190612da1565b925073577d296678535e4903d59a4c929b718e1d575e0a73ffffffffffffffffffffffffffffffffffffffff166370a08231306040518263ffffffff1660e01b8152600401610b1b919061308a565b60206040518083038186803b158015610b3357600080fd5b505afa158015610b47573d6000803e3d6000fd5b505050506040513d601f19601f82011682018060405250810190610b6b9190612da1565b9150735592ec0cfb4dbc12d3ab100b257153436a1f0fea73ffffffffffffffffffffffffffffffffffffffff166370a08231306040518263ffffffff1660e01b8152600401610bba919061308a565b60206040518083038186803b158015610bd257600080fd5b505afa158015610be6573d6000803e3d6000fd5b505050506040513d601f19601f82011682018060405250810190610c0a9190612da1565b905090919293565b60035481565b6000610c2460016120e3565b90508015610c48576001600060016101000a81548160ff0219169083151502179055505b6064828486610c57919061327e565b610c61919061327e565b14610ca1576040517f08c379a0000000000000000000000000000000000000000000000000000000008152600401610c98906131e0565b60405180910390fd5b84600060026101000a81548173ffffffffffffffffffffffffffffffffffffffff021916908373ffffffffffffffffffffffffffffffffffffffff1602179055508360018190555082600281905550816003819055506000841315610d8d5773d6801a1dffcd0a410336ef88def4320d6df1883e73ffffffffffffffffffffffffffffffffffffffff16631249c58b60648634610d3e919061345a565b610d489190613312565b6040518263ffffffff1660e01b81526004016000604051808303818588803b158015610d7357600080fd5b505af1158015610d87573d6000803e3d6000fd5b50505050505b60008284610d9b919061327e565b13156117505773c778417e063141139fce010982780140aa0cd5ab73ffffffffffffffffffffffffffffffffffffffff1663d0e30db060648486610ddf919061327e565b34610dea919061345a565b610df49190613312565b6040518263ffffffff1660e01b81526004016000604051808303818588803b158015610e1f57600080fd5b505af1158015610e33573d6000803e3d6000fd5b50505050506000604051806101000160405280600073ffffffffffffffffffffffffffffffffffffffff168152602001600073ffffffffffffffffffffffffffffffffffffffff168152602001610bb862ffffff1681526020013073ffffffffffffffffffffffffffffffffffffffff1681526020014281526020016000815260200160008152602001600073ffffffffffffffffffffffffffffffffffffffff168152509050600084131561131357610f2d73c778417e063141139fce010982780140aa0cd5ab73e592427a0aece92de3edee1f18e0157c0586156460648734610f1e919061345a565b610f289190613312565b6121d3565b73c778417e063141139fce010982780140aa0cd5ab816000019073ffffffffffffffffffffffffffffffffffffffff16908173ffffffffffffffffffffffffffffffffffffffff168152505073577d296678535e4903d59a4c929b718e1d575e0a816020019073ffffffffffffffffffffffffffffffffffffffff16908173ffffffffffffffffffffffffffffffffffffffff168152505060648434610fd3919061345a565b610fdd9190613312565b8160a001818152505073e592427a0aece92de3edee1f18e0157c0586156473ffffffffffffffffffffffffffffffffffffffff1663414bf389826040518263ffffffff1660e01b81526004016110339190613220565b602060405180830381600087803b15801561104d57600080fd5b505af1158015611061573d6000803e3d6000fd5b505050506040513d601f19601f820116820180604052508101906110859190612da1565b5073577d296678535e4903d59a4c929b718e1d575e0a73ffffffffffffffffffffffffffffffffffffffff1663095ea7b37214f450b8ae7708593f4a46f8fa6e5d50620f9673577d296678535e4903d59a4c929b718e1d575e0a73ffffffffffffffffffffffffffffffffffffffff166370a08231306040518263ffffffff1660e01b8152600401611117919061308a565b60206040518083038186803b15801561112f57600080fd5b505afa158015611143573d6000803e3d6000fd5b505050506040513d601f19601f820116820180604052508101906111679190612da1565b6040518363ffffffff1660e01b81526004016111849291906130a5565b602060405180830381600087803b15801561119e57600080fd5b505af11580156111b2573d6000803e3d6000fd5b505050506040513d601f19601f820116820180604052508101906111d69190612d29565b507214f450b8ae7708593f4a46f8fa6e5d50620f9673ffffffffffffffffffffffffffffffffffffffff1663a0712d6873577d296678535e4903d59a4c929b718e1d575e0a73ffffffffffffffffffffffffffffffffffffffff166370a08231306040518263ffffffff1660e01b8152600401611253919061308a565b60206040518083038186803b15801561126b57600080fd5b505afa15801561127f573d6000803e3d6000fd5b505050506040513d601f19601f820116820180604052508101906112a39190612da1565b6040518263ffffffff1660e01b81526004016112bf919061323c565b602060405180830381600087803b1580156112d957600080fd5b505af11580156112ed573d6000803e3d6000fd5b505050506040513d601f19601f820116820180604052508101906113119190612da1565b505b600083131561174e5761136673c778417e063141139fce010982780140aa0cd5ab73e592427a0aece92de3edee1f18e0157c0586156460648634611357919061345a565b6113619190613312565b6121d3565b73c778417e063141139fce010982780140aa0cd5ab816000019073ffffffffffffffffffffffffffffffffffffffff16908173ffffffffffffffffffffffffffffffffffffffff1681525050735592ec0cfb4dbc12d3ab100b257153436a1f0fea816020019073ffffffffffffffffffffffffffffffffffffffff16908173ffffffffffffffffffffffffffffffffffffffff16815250506064833461140c919061345a565b6114169190613312565b8160a001818152505073e592427a0aece92de3edee1f18e0157c0586156473ffffffffffffffffffffffffffffffffffffffff1663414bf389826040518263ffffffff1660e01b815260040161146c9190613220565b602060405180830381600087803b15801561148657600080fd5b505af115801561149a573d6000803e3d6000fd5b505050506040513d601f19601f820116820180604052508101906114be9190612da1565b50735592ec0cfb4dbc12d3ab100b257153436a1f0fea73ffffffffffffffffffffffffffffffffffffffff1663095ea7b3736d7f0754ffeb405d23c51ce938289d4835be3b14735592ec0cfb4dbc12d3ab100b257153436a1f0fea73ffffffffffffffffffffffffffffffffffffffff166370a08231306040518263ffffffff1660e01b8152600401611551919061308a565b60206040518083038186803b15801561156957600080fd5b505afa15801561157d573d6000803e3d6000fd5b505050506040513d601f19601f820116820180604052508101906115a19190612da1565b6040518363ffffffff1660e01b81526004016115be9291906130a5565b602060405180830381600087803b1580156115d857600080fd5b505af11580156115ec573d6000803e3d6000fd5b505050506040513d601f19601f820116820180604052508101906116109190612d29565b50736d7f0754ffeb405d23c51ce938289d4835be3b1473ffffffffffffffffffffffffffffffffffffffff1663a0712d68735592ec0cfb4dbc12d3ab100b257153436a1f0fea73ffffffffffffffffffffffffffffffffffffffff166370a08231306040518263ffffffff1660e01b815260040161168e919061308a565b60206040518083038186803b1580156116a657600080fd5b505afa1580156116ba573d6000803e3d6000fd5b505050506040513d601f19601f820116820180604052508101906116de9190612da1565b6040518263ffffffff1660e01b81526004016116fa919061323c565b602060405180830381600087803b15801561171457600080fd5b505af1158015611728573d6000803e3d6000fd5b505050506040513d601f19601f8201168201806040525081019061174c9190612da1565b505b505b80156117a95760008060016101000a81548160ff0219169083151502179055507f7f26b83ff96e1f2b6a682f133852f6798a09c465da95921460cefb384740249860016040516117a09190613165565b60405180910390a15b5050505050565b600060029054906101000a900473ffffffffffffffffffffffffffffffffffffffff1681565b60025481565b600060029054906101000a900473ffffffffffffffffffffffffffffffffffffffff1673ffffffffffffffffffffffffffffffffffffffff163373ffffffffffffffffffffffffffffffffffffffff161461186c576040517f08c379a0000000000000000000000000000000000000000000000000000000008152600401611863906131c0565b60405180910390fd5b606481838561187b919061327e565b611885919061327e565b146118c5576040517f08c379a00000000000000000000000000000000000000000000000000000000081526004016118bc906131e0565b60405180910390fd5b8260018190555081600281905550806003819055506118e2611b61565b600047905060008111156119665773c778417e063141139fce010982780140aa0cd5ab73ffffffffffffffffffffffffffffffffffffffff1663d0e30db0826040518263ffffffff1660e01b81526004016000604051808303818588803b15801561194c57600080fd5b505af1158015611960573d6000803e3d6000fd5b50505050505b61196e612328565b50505050565b6000806000738a753747a1fa494ec906ce90e9f37563a8af630e73ffffffffffffffffffffffffffffffffffffffff1663feaf968c6040518163ffffffff1660e01b815260040160a06040518083038186803b1580156119d357600080fd5b505afa1580156119e7573d6000803e3d6000fd5b505050506040513d601f19601f82011682018060405250810190611a0b9190612dca565b90919293509091509050508093505073ece365b379e1dd183b20fc5f022230c044d5140473ffffffffffffffffffffffffffffffffffffffff1663feaf968c6040518163ffffffff1660e01b815260040160a06040518083038186803b158015611a7457600080fd5b505afa158015611a88573d6000803e3d6000fd5b505050506040513d601f19601f82011682018060405250810190611aac9190612dca565b909192935090915090505080925050732ba49aaa16e6afd2a993473cfb70fa8559b523cf73ffffffffffffffffffffffffffffffffffffffff1663feaf968c6040518163ffffffff1660e01b815260040160a06040518083038186803b158015611b1557600080fd5b505afa158015611b29573d6000803e3d6000fd5b505050506040513d601f19601f82011682018060405250810190611b4d9190612dca565b909192935090915090505080915050909192565b600073d6801a1dffcd0a410336ef88def4320d6df1883e73ffffffffffffffffffffffffffffffffffffffff166370a08231306040518263ffffffff1660e01b8152600401611bb0919061308a565b60206040518083038186803b158015611bc857600080fd5b505afa158015611bdc573d6000803e3d6000fd5b505050506040513d601f19601f82011682018060405250810190611c009190612da1565b905060007214f450b8ae7708593f4a46f8fa6e5d50620f9673ffffffffffffffffffffffffffffffffffffffff166370a08231306040518263ffffffff1660e01b8152600401611c50919061308a565b60206040518083038186803b158015611c6857600080fd5b505afa158015611c7c573d6000803e3d6000fd5b505050506040513d601f19601f82011682018060405250810190611ca09190612da1565b90506000736d7f0754ffeb405d23c51ce938289d4835be3b1473ffffffffffffffffffffffffffffffffffffffff166370a08231306040518263ffffffff1660e01b8152600401611cf1919061308a565b60206040518083038186803b158015611d0957600080fd5b505afa158015611d1d573d6000803e3d6000fd5b505050506040513d601f19601f82011682018060405250810190611d419190612da1565b90506000831115611ded5773d6801a1dffcd0a410336ef88def4320d6df1883e73ffffffffffffffffffffffffffffffffffffffff1663db006a75846040518263ffffffff1660e01b8152600401611d99919061323c565b602060405180830381600087803b158015611db357600080fd5b505af1158015611dc7573d6000803e3d6000fd5b505050506040513d601f19601f82011682018060405250810190611deb9190612da1565b505b6000821115611f65577214f450b8ae7708593f4a46f8fa6e5d50620f9673ffffffffffffffffffffffffffffffffffffffff1663db006a75836040518263ffffffff1660e01b8152600401611e42919061323c565b602060405180830381600087803b158015611e5c57600080fd5b505af1158015611e70573d6000803e3d6000fd5b505050506040513d601f19601f82011682018060405250810190611e949190612da1565b50611f6473577d296678535e4903d59a4c929b718e1d575e0a73c778417e063141139fce010982780140aa0cd5ab73577d296678535e4903d59a4c929b718e1d575e0a73ffffffffffffffffffffffffffffffffffffffff166370a08231306040518263ffffffff1660e01b8152600401611f0f919061308a565b60206040518083038186803b158015611f2757600080fd5b505afa158015611f3b573d6000803e3d6000fd5b505050506040513d601f19601f82011682018060405250810190611f5f9190612da1565b612ac1565b5b60008111156120de57736d7f0754ffeb405d23c51ce938289d4835be3b1473ffffffffffffffffffffffffffffffffffffffff1663db006a75826040518263ffffffff1660e01b8152600401611fbb919061323c565b602060405180830381600087803b158015611fd557600080fd5b505af1158015611fe9573d6000803e3d6000fd5b505050506040513d601f19601f8201168201806040525081019061200d9190612da1565b506120dd735592ec0cfb4dbc12d3ab100b257153436a1f0fea73c778417e063141139fce010982780140aa0cd5ab735592ec0cfb4dbc12d3ab100b257153436a1f0fea73ffffffffffffffffffffffffffffffffffffffff166370a08231306040518263ffffffff1660e01b8152600401612088919061308a565b60206040518083038186803b1580156120a057600080fd5b505afa1580156120b4573d6000803e3d6000fd5b505050506040513d601f19601f820116820180604052508101906120d89190612da1565b612ac1565b5b505050565b60008060019054906101000a900460ff161561215a5760018260ff16148015612112575061211030612c25565b155b612151576040517f08c379a000000000000000000000000000000000000000000000000000000000815260040161214890613200565b60405180910390fd5b600090506121ce565b8160ff1660008054906101000a900460ff1660ff16106121af576040517f08c379a00000000000000000000000000000000000000000000000000000000081526004016121a690613200565b60405180910390fd5b816000806101000a81548160ff021916908360ff160217905550600190505b919050565b6000808473ffffffffffffffffffffffffffffffffffffffff1663095ea7b360e01b85856040516024016122089291906130a5565b604051602081830303815290604052907bffffffffffffffffffffffffffffffffffffffffffffffffffffffff19166020820180517bffffffffffffffffffffffffffffffffffffffffffffffffffffffff8381831617835250505050604051612272919061305e565b6000604051808303816000865af19150503d80600081146122af576040519150601f19603f3d011682016040523d82523d6000602084013e6122b4565b606091505b50915091508180156122e257506000815114806122e15750808060200190518101906122e09190612d29565b5b5b612321576040517f08c379a000000000000000000000000000000000000000000000000000000000815260040161231890613180565b60405180910390fd5b5050505050565b600073c778417e063141139fce010982780140aa0cd5ab73ffffffffffffffffffffffffffffffffffffffff166370a08231306040518263ffffffff1660e01b8152600401612377919061308a565b60206040518083038186803b15801561238f57600080fd5b505afa1580156123a3573d6000803e3d6000fd5b505050506040513d601f19601f820116820180604052508101906123c79190612da1565b905060006064600154836123db919061345a565b6123e59190613312565b905060006064600254846123f9919061345a565b6124039190613312565b90506000606460035485612417919061345a565b6124219190613312565b9050600060015413156125235773c778417e063141139fce010982780140aa0cd5ab73ffffffffffffffffffffffffffffffffffffffff16632e1a7d4d846040518263ffffffff1660e01b815260040161247b919061323c565b600060405180830381600087803b15801561249557600080fd5b505af11580156124a9573d6000803e3d6000fd5b5050505073d6801a1dffcd0a410336ef88def4320d6df1883e73ffffffffffffffffffffffffffffffffffffffff16631249c58b476040518263ffffffff1660e01b81526004016000604051808303818588803b15801561250957600080fd5b505af115801561251d573d6000803e3d6000fd5b50505050505b600060025413156127ee5761256173c778417e063141139fce010982780140aa0cd5ab73577d296678535e4903d59a4c929b718e1d575e0a84612ac1565b73577d296678535e4903d59a4c929b718e1d575e0a73ffffffffffffffffffffffffffffffffffffffff1663095ea7b37214f450b8ae7708593f4a46f8fa6e5d50620f9673577d296678535e4903d59a4c929b718e1d575e0a73ffffffffffffffffffffffffffffffffffffffff166370a08231306040518263ffffffff1660e01b81526004016125f2919061308a565b60206040518083038186803b15801561260a57600080fd5b505afa15801561261e573d6000803e3d6000fd5b505050506040513d601f19601f820116820180604052508101906126429190612da1565b6040518363ffffffff1660e01b815260040161265f9291906130a5565b602060405180830381600087803b15801561267957600080fd5b505af115801561268d573d6000803e3d6000fd5b505050506040513d601f19601f820116820180604052508101906126b19190612d29565b507214f450b8ae7708593f4a46f8fa6e5d50620f9673ffffffffffffffffffffffffffffffffffffffff1663a0712d6873577d296678535e4903d59a4c929b718e1d575e0a73ffffffffffffffffffffffffffffffffffffffff166370a08231306040518263ffffffff1660e01b815260040161272e919061308a565b60206040518083038186803b15801561274657600080fd5b505afa15801561275a573d6000803e3d6000fd5b505050506040513d601f19601f8201168201806040525081019061277e9190612da1565b6040518263ffffffff1660e01b815260040161279a919061323c565b602060405180830381600087803b1580156127b457600080fd5b505af11580156127c8573d6000803e3d6000fd5b505050506040513d601f19601f820116820180604052508101906127ec9190612da1565b505b60006003541315612abb5761282c73c778417e063141139fce010982780140aa0cd5ab735592ec0cfb4dbc12d3ab100b257153436a1f0fea83612ac1565b735592ec0cfb4dbc12d3ab100b257153436a1f0fea73ffffffffffffffffffffffffffffffffffffffff1663095ea7b3736d7f0754ffeb405d23c51ce938289d4835be3b14735592ec0cfb4dbc12d3ab100b257153436a1f0fea73ffffffffffffffffffffffffffffffffffffffff166370a08231306040518263ffffffff1660e01b81526004016128be919061308a565b60206040518083038186803b1580156128d657600080fd5b505afa1580156128ea573d6000803e3d6000fd5b505050506040513d601f19601f8201168201806040525081019061290e9190612da1565b6040518363ffffffff1660e01b815260040161292b9291906130a5565b602060405180830381600087803b15801561294557600080fd5b505af1158015612959573d6000803e3d6000fd5b505050506040513d601f19601f8201168201806040525081019061297d9190612d29565b50736d7f0754ffeb405d23c51ce938289d4835be3b1473ffffffffffffffffffffffffffffffffffffffff1663a0712d68735592ec0cfb4dbc12d3ab100b257153436a1f0fea73ffffffffffffffffffffffffffffffffffffffff166370a08231306040518263ffffffff1660e01b81526004016129fb919061308a565b60206040518083038186803b158015612a1357600080fd5b505afa158015612a27573d6000803e3d6000fd5b505050506040513d601f19601f82011682018060405250810190612a4b9190612da1565b6040518263ffffffff1660e01b8152600401612a67919061323c565b602060405180830381600087803b158015612a8157600080fd5b505af1158015612a95573d6000803e3d6000fd5b505050506040513d601f19601f82011682018060405250810190612ab99190612da1565b505b50505050565b612ae08373e592427a0aece92de3edee1f18e0157c05861564836121d3565b60006040518061010001604052808573ffffffffffffffffffffffffffffffffffffffff1681526020018473ffffffffffffffffffffffffffffffffffffffff168152602001610bb862ffffff1681526020013073ffffffffffffffffffffffffffffffffffffffff16815260200142815260200183815260200160008152602001600073ffffffffffffffffffffffffffffffffffffffff16815250905073e592427a0aece92de3edee1f18e0157c0586156473ffffffffffffffffffffffffffffffffffffffff1663414bf389826040518263ffffffff1660e01b8152600401612bcc9190613220565b602060405180830381600087803b158015612be657600080fd5b505af1158015612bfa573d6000803e3d6000fd5b505050506040513d601f19601f82011682018060405250810190612c1e9190612da1565b5050505050565b6000808273ffffffffffffffffffffffffffffffffffffffff163b119050919050565b600081359050612c57816136d1565b92915050565b600081519050612c6c816136e8565b92915050565b600081359050612c81816136ff565b92915050565b600081519050612c96816136ff565b92915050565b600081519050612cab81613716565b92915050565b600081519050612cc08161372d565b92915050565b60008060008060808587031215612cdc57600080fd5b6000612cea87828801612c48565b9450506020612cfb87828801612c72565b9350506040612d0c87828801612c72565b9250506060612d1d87828801612c72565b91505092959194509250565b600060208284031215612d3b57600080fd5b6000612d4984828501612c5d565b91505092915050565b600080600060608486031215612d6757600080fd5b6000612d7586828701612c72565b9350506020612d8686828701612c72565b9250506040612d9786828701612c72565b9150509250925092565b600060208284031215612db357600080fd5b6000612dc184828501612c9c565b91505092915050565b600080600080600060a08688031215612de257600080fd5b6000612df088828901612cb1565b9550506020612e0188828901612c87565b9450506040612e1288828901612c9c565b9350506060612e2388828901612c9c565b9250506080612e3488828901612cb1565b9150509295509295909350565b612e4a816134b4565b82525050565b612e59816134b4565b82525050565b6000612e6a82613257565b612e748185613262565b9350612e8481856020860161354a565b80840191505092915050565b612e99816134d2565b82525050565b612ea881613538565b82525050565b6000612ebb60028361326d565b9150612ec6826135db565b602082019050919050565b6000612ede601e8361326d565b9150612ee982613604565b602082019050919050565b6000612f0160188361326d565b9150612f0c8261362d565b602082019050919050565b6000612f2460178361326d565b9150612f2f82613656565b602082019050919050565b6000612f47602e8361326d565b9150612f528261367f565b604082019050919050565b6000612f6a600083613262565b9150612f75826136ce565b600082019050919050565b61010082016000820151612f976000850182612e41565b506020820151612faa6020850182612e41565b506040820151612fbd6040850182613031565b506060820151612fd06060850182612e41565b506080820151612fe36080850182613040565b5060a0820151612ff660a0850182613040565b5060c082015161300960c0850182613040565b5060e082015161301c60e0850182613022565b50505050565b61302b816134dc565b82525050565b61303a816134fc565b82525050565b6130498161350b565b82525050565b6130588161350b565b82525050565b600061306a8284612e5f565b915081905092915050565b600061308082612f5d565b9150819050919050565b600060208201905061309f6000830184612e50565b92915050565b60006040820190506130ba6000830185612e50565b6130c7602083018461304f565b9392505050565b60006020820190506130e36000830184612e90565b92915050565b60006060820190506130fe6000830186612e90565b61310b6020830185612e90565b6131186040830184612e90565b949350505050565b60006080820190506131356000830187612e90565b6131426020830186612e90565b61314f6040830185612e90565b61315c6060830184612e90565b95945050505050565b600060208201905061317a6000830184612e9f565b92915050565b6000602082019050818103600083015261319981612eae565b9050919050565b600060208201905081810360008301526131b981612ed1565b9050919050565b600060208201905081810360008301526131d981612ef4565b9050919050565b600060208201905081810360008301526131f981612f17565b9050919050565b6000602082019050818103600083015261321981612f3a565b9050919050565b6000610100820190506132366000830184612f80565b92915050565b6000602082019050613251600083018461304f565b92915050565b600081519050919050565b600081905092915050565b600082825260208201905092915050565b6000613289826134d2565b9150613294836134d2565b9250817f7fffffffffffffffffffffffffffffffffffffffffffffffffffffffffffffff038313600083121516156132cf576132ce61357d565b5b817f80000000000000000000000000000000000000000000000000000000000000000383126000831216156133075761330661357d565b5b828201905092915050565b600061331d8261350b565b91506133288361350b565b925082613338576133376135ac565b5b828204905092915050565b600061334e826134d2565b9150613359836134d2565b9250827f7fffffffffffffffffffffffffffffffffffffffffffffffffffffffffffffff04821160008413600084131616156133985761339761357d565b5b817f800000000000000000000000000000000000000000000000000000000000000005831260008412600084131616156133d5576133d461357d565b5b827f800000000000000000000000000000000000000000000000000000000000000005821260008413600084121616156134125761341161357d565b5b827f7fffffffffffffffffffffffffffffffffffffffffffffffffffffffffffffff058212600084126000841216161561344f5761344e61357d565b5b828202905092915050565b60006134658261350b565b91506134708361350b565b9250817fffffffffffffffffffffffffffffffffffffffffffffffffffffffffffffffff04831182151516156134a9576134a861357d565b5b828202905092915050565b60006134bf826134dc565b9050919050565b60008115159050919050565b6000819050919050565b600073ffffffffffffffffffffffffffffffffffffffff82169050919050565b600062ffffff82169050919050565b6000819050919050565b600060ff82169050919050565b600069ffffffffffffffffffff82169050919050565b600061354382613515565b9050919050565b60005b8381101561356857808201518184015260208101905061354d565b83811115613577576000848401525b50505050565b7f4e487b7100000000000000000000000000000000000000000000000000000000600052601160045260246000fd5b7f4e487b7100000000000000000000000000000000000000000000000000000000600052601260045260246000fd5b7f5341000000000000000000000000000000000000000000000000000000000000600082015250565b7f7472616e7366657220746f206f776e657220756e7375636365737366756c0000600082015250565b7f6f6e6c79206f776e65722063616e2063616c6c20746869730000000000000000600082015250565b7f696e76616c696420616c6c6f636174696f6e732073756d000000000000000000600082015250565b7f496e697469616c697a61626c653a20636f6e747261637420697320616c72656160008201527f647920696e697469616c697a6564000000000000000000000000000000000000602082015250565b50565b6136da816134b4565b81146136e557600080fd5b50565b6136f1816134c6565b81146136fc57600080fd5b50565b613708816134d2565b811461371357600080fd5b50565b61371f8161350b565b811461372a57600080fd5b50565b61373681613522565b811461374157600080fd5b5056fea2646970667358221220bebb7a81178c102a824c87d5381f51cb879e788dbb80585b57081391edf775b564736f6c63430008040033",
  "linkReferences": {},
  "deployedLinkReferences": {}
}