{
  "_format": "hh-sol-artifact-1",
  "contractName": "ParfaitProxyFactory",
  "sourceName": "contracts/ParfaitProxyFactory.sol",
  "abi": [
    {
      "inputs": [
        {
          "internalType": "address",
          "name": "_implementation",
          "type": "address"
        }
      ],
      "stateMutability": "nonpayable",
      "type": "constructor"
    },
    {
      "anonymous": false,
      "inputs": [
        {
          "indexed": false,
          "internalType": "address",
          "name": "_owner",
          "type": "address"
        },
        {
          "indexed": false,
          "internalType": "address",
          "name": "_clone",
          "type": "address"
        }
      ],
      "name": "NewClone",
      "type": "event"
    },
    {
      "inputs": [
        {
          "internalType": "uint256",
          "name": "",
          "type": "uint256"
        }
      ],
      "name": "allClones",
      "outputs": [
        {
          "internalType": "address",
          "name": "",
          "type": "address"
        }
      ],
      "stateMutability": "view",
      "type": "function"
    },
    {
      "inputs": [
        {
          "internalType": "uint256",
          "name": "_xAllocation",
          "type": "uint256"
        },
        {
          "internalType": "uint256",
          "name": "_yAllocation",
          "type": "uint256"
        },
        {
          "internalType": "uint256",
          "name": "_zAllocation",
          "type": "uint256"
        }
      ],
      "name": "createNewProxy",
      "outputs": [
        {
          "internalType": "address",
          "name": "instance",
          "type": "address"
        }
      ],
      "stateMutability": "payable",
      "type": "function"
    },
    {
      "inputs": [],
      "name": "implementationContract",
      "outputs": [
        {
          "internalType": "address",
          "name": "",
          "type": "address"
        }
      ],
      "stateMutability": "view",
      "type": "function"
    }
  ],
  "bytecode": "0x608060405234801561001057600080fd5b506040516108603803806108608339818101604052810190610032919061008d565b806000806101000a81548173ffffffffffffffffffffffffffffffffffffffff021916908373ffffffffffffffffffffffffffffffffffffffff160217905550506100ff565b600081519050610087816100e8565b92915050565b60006020828403121561009f57600080fd5b60006100ad84828501610078565b91505092915050565b60006100c1826100c8565b9050919050565b600073ffffffffffffffffffffffffffffffffffffffff82169050919050565b6100f1816100b6565b81146100fc57600080fd5b50565b6107528061010e6000396000f3fe6080604052600436106100345760003560e01c806399e7d05614610039578063b204fd7914610064578063d7741cad14610094575b600080fd5b34801561004557600080fd5b5061004e6100d1565b60405161005b9190610554565b60405180910390f35b61007e60048036038101906100799190610459565b6100f5565b60405161008b9190610554565b60405180910390f35b3480156100a057600080fd5b506100bb60048036038101906100b69190610430565b610307565b6040516100c89190610554565b60405180910390f35b60008054906101000a900473ffffffffffffffffffffffffffffffffffffffff1681565b600061012060008054906101000a900473ffffffffffffffffffffffffffffffffffffffff16610346565b905060008173ffffffffffffffffffffffffffffffffffffffff1634338787876040516024016101539493929190610598565b6040516020818303038152906040527f7b9c5b8e000000000000000000000000000000000000000000000000000000007bffffffffffffffffffffffffffffffffffffffffffffffffffffffff19166020820180517bffffffffffffffffffffffffffffffffffffffffffffffffffffffff83818316178352505050506040516101dd919061053d565b60006040518083038185875af1925050503d806000811461021a576040519150601f19603f3d011682016040523d82523d6000602084013e61021f565b606091505b5050905080610263576040517f08c379a000000000000000000000000000000000000000000000000000000000815260040161025a906105fd565b60405180910390fd5b6001829080600181540180825580915050600190039060005260206000200160009091909190916101000a81548173ffffffffffffffffffffffffffffffffffffffff021916908373ffffffffffffffffffffffffffffffffffffffff1602179055507f3bf919a220a0f12ddcaf77fd06ffa4b9c728617774936f0d78b452010319c82433836040516102f792919061056f565b60405180910390a1509392505050565b6001818154811061031757600080fd5b906000526020600020016000915054906101000a900473ffffffffffffffffffffffffffffffffffffffff1681565b60006040517f3d602d80600a3d3981f3363d3d373d3d3d363d7300000000000000000000000081528260601b60148201527f5af43d82803e903d91602b57fd5bf3000000000000000000000000000000000060288201526037816000f0915050600073ffffffffffffffffffffffffffffffffffffffff168173ffffffffffffffffffffffffffffffffffffffff161415610416576040517f08c379a000000000000000000000000000000000000000000000000000000000815260040161040d906105dd565b60405180910390fd5b919050565b60008135905061042a81610705565b92915050565b60006020828403121561044257600080fd5b60006104508482850161041b565b91505092915050565b60008060006060848603121561046e57600080fd5b600061047c8682870161041b565b935050602061048d8682870161041b565b925050604061049e8682870161041b565b9150509250925092565b6104b181610644565b82525050565b60006104c28261061d565b6104cc8185610628565b93506104dc818560208601610680565b80840191505092915050565b60006104f5601683610633565b9150610500826106b3565b602082019050919050565b6000610518601b83610633565b9150610523826106dc565b602082019050919050565b61053781610676565b82525050565b600061054982846104b7565b915081905092915050565b600060208201905061056960008301846104a8565b92915050565b600060408201905061058460008301856104a8565b61059160208301846104a8565b9392505050565b60006080820190506105ad60008301876104a8565b6105ba602083018661052e565b6105c7604083018561052e565b6105d4606083018461052e565b95945050505050565b600060208201905081810360008301526105f6816104e8565b9050919050565b600060208201905081810360008301526106168161050b565b9050919050565b600081519050919050565b600081905092915050565b600082825260208201905092915050565b600061064f82610656565b9050919050565b600073ffffffffffffffffffffffffffffffffffffffff82169050919050565b6000819050919050565b60005b8381101561069e578082015181840152602081019050610683565b838111156106ad576000848401525b50505050565b7f455243313136373a20637265617465206661696c656400000000000000000000600082015250565b7f50726f787920496e697469616c697a6174696f6e204661696c65640000000000600082015250565b61070e81610676565b811461071957600080fd5b5056fea264697066735822122047b56b3efb772696eb9841bab91729b6a5dc8df08ceda622405a9dcfa10a038664736f6c63430008040033",
  "linkReferences": {},
  "deployedLinkReferences": {}
}