{
  "_format": "hh-sol-artifact-1",
  "contractName": "ParfaitProxyFactory",
  "sourceName": "contracts/ParfaitProxyFactory.sol",
  "abi": [
    {
      "inputs": [
        {
          "internalType": "address",
          "name": "_implementation",
          "type": "address"
        }
      ],
      "stateMutability": "nonpayable",
      "type": "constructor"
    },
    {
      "anonymous": false,
      "inputs": [
        {
          "indexed": false,
          "internalType": "address",
          "name": "_owner",
          "type": "address"
        },
        {
          "indexed": false,
          "internalType": "address",
          "name": "_clone",
          "type": "address"
        }
      ],
      "name": "NewClone",
      "type": "event"
    },
    {
      "inputs": [
        {
          "internalType": "uint256",
          "name": "",
          "type": "uint256"
        }
      ],
      "name": "allClones",
      "outputs": [
        {
          "internalType": "address",
          "name": "",
          "type": "address"
        }
      ],
      "stateMutability": "view",
      "type": "function"
    },
    {
      "inputs": [
        {
          "internalType": "int256",
          "name": "_xAllocation",
          "type": "int256"
        },
        {
          "internalType": "int256",
          "name": "_yAllocation",
          "type": "int256"
        },
        {
          "internalType": "int256",
          "name": "_zAllocation",
          "type": "int256"
        }
      ],
      "name": "createNewProxy",
      "outputs": [
        {
          "internalType": "address",
          "name": "instance",
          "type": "address"
        }
      ],
      "stateMutability": "payable",
      "type": "function"
    },
    {
      "inputs": [],
      "name": "implementationContract",
      "outputs": [
        {
          "internalType": "address",
          "name": "",
          "type": "address"
        }
      ],
      "stateMutability": "view",
      "type": "function"
    }
  ],
  "bytecode": "0x608060405234801561001057600080fd5b50604051610ad9380380610ad98339818101604052810190610032919061008d565b806000806101000a81548173ffffffffffffffffffffffffffffffffffffffff021916908373ffffffffffffffffffffffffffffffffffffffff160217905550506100ff565b600081519050610087816100e8565b92915050565b60006020828403121561009f57600080fd5b60006100ad84828501610078565b91505092915050565b60006100c1826100c8565b9050919050565b600073ffffffffffffffffffffffffffffffffffffffff82169050919050565b6100f1816100b6565b81146100fc57600080fd5b50565b6109cb8061010e6000396000f3fe6080604052600436106100345760003560e01c806399e7d05614610039578063c7b1779614610064578063d7741cad14610094575b600080fd5b34801561004557600080fd5b5061004e6100d1565b60405161005b9190610753565b60405180910390f35b61007e600480360381019061007991906105e7565b6100f5565b60405161008b9190610753565b60405180910390f35b3480156100a057600080fd5b506100bb60048036038101906100b69190610636565b61034e565b6040516100c89190610753565b60405180910390f35b60008054906101000a900473ffffffffffffffffffffffffffffffffffffffff1681565b600061012060008054906101000a900473ffffffffffffffffffffffffffffffffffffffff1661038d565b90506101606040518060400160405280600781526020017f76616c75653a2000000000000000000000000000000000000000000000000000815250610462565b610169346104fb565b60008173ffffffffffffffffffffffffffffffffffffffff16343387878760405160240161019a9493929190610797565b6040516020818303038152906040527f7b9c5b8e000000000000000000000000000000000000000000000000000000007bffffffffffffffffffffffffffffffffffffffffffffffffffffffff19166020820180517bffffffffffffffffffffffffffffffffffffffffffffffffffffffff8381831617835250505050604051610224919061073c565b60006040518083038185875af1925050503d8060008114610261576040519150601f19603f3d011682016040523d82523d6000602084013e610266565b606091505b50509050806102aa576040517f08c379a00000000000000000000000000000000000000000000000000000000081526004016102a19061081e565b60405180910390fd5b6001829080600181540180825580915050600190039060005260206000200160009091909190916101000a81548173ffffffffffffffffffffffffffffffffffffffff021916908373ffffffffffffffffffffffffffffffffffffffff1602179055507f3bf919a220a0f12ddcaf77fd06ffa4b9c728617774936f0d78b452010319c824338360405161033e92919061076e565b60405180910390a1509392505050565b6001818154811061035e57600080fd5b906000526020600020016000915054906101000a900473ffffffffffffffffffffffffffffffffffffffff1681565b60006040517f3d602d80600a3d3981f3363d3d373d3d3d363d7300000000000000000000000081528260601b60148201527f5af43d82803e903d91602b57fd5bf3000000000000000000000000000000000060288201526037816000f0915050600073ffffffffffffffffffffffffffffffffffffffff168173ffffffffffffffffffffffffffffffffffffffff16141561045d576040517f08c379a0000000000000000000000000000000000000000000000000000000008152600401610454906107fe565b60405180910390fd5b919050565b6104f88160405160240161047691906107dc565b6040516020818303038152906040527f41304fac000000000000000000000000000000000000000000000000000000007bffffffffffffffffffffffffffffffffffffffffffffffffffffffff19166020820180517bffffffffffffffffffffffffffffffffffffffffffffffffffffffff8381831617835250505050610594565b50565b6105918160405160240161050f919061083e565b6040516020818303038152906040527ff5b1bba9000000000000000000000000000000000000000000000000000000007bffffffffffffffffffffffffffffffffffffffffffffffffffffffff19166020820180517bffffffffffffffffffffffffffffffffffffffffffffffffffffffff8381831617835250505050610594565b50565b60008151905060006a636f6e736f6c652e6c6f679050602083016000808483855afa5050505050565b6000813590506105cc81610967565b92915050565b6000813590506105e18161097e565b92915050565b6000806000606084860312156105fc57600080fd5b600061060a868287016105bd565b935050602061061b868287016105bd565b925050604061062c868287016105bd565b9150509250925092565b60006020828403121561064857600080fd5b6000610656848285016105d2565b91505092915050565b6106688161088b565b82525050565b600061067982610859565b610683818561086f565b93506106938185602086016108d1565b80840191505092915050565b6106a88161089d565b82525050565b60006106b982610864565b6106c3818561087a565b93506106d38185602086016108d1565b6106dc81610904565b840191505092915050565b60006106f460168361087a565b91506106ff82610915565b602082019050919050565b6000610717601b8361087a565b91506107228261093e565b602082019050919050565b610736816108c7565b82525050565b6000610748828461066e565b915081905092915050565b6000602082019050610768600083018461065f565b92915050565b6000604082019050610783600083018561065f565b610790602083018461065f565b9392505050565b60006080820190506107ac600083018761065f565b6107b9602083018661069f565b6107c6604083018561069f565b6107d3606083018461069f565b95945050505050565b600060208201905081810360008301526107f681846106ae565b905092915050565b60006020820190508181036000830152610817816106e7565b9050919050565b600060208201905081810360008301526108378161070a565b9050919050565b6000602082019050610853600083018461072d565b92915050565b600081519050919050565b600081519050919050565b600081905092915050565b600082825260208201905092915050565b6000610896826108a7565b9050919050565b6000819050919050565b600073ffffffffffffffffffffffffffffffffffffffff82169050919050565b6000819050919050565b60005b838110156108ef5780820151818401526020810190506108d4565b838111156108fe576000848401525b50505050565b6000601f19601f8301169050919050565b7f455243313136373a20637265617465206661696c656400000000000000000000600082015250565b7f50726f787920496e697469616c697a6174696f6e204661696c65640000000000600082015250565b6109708161089d565b811461097b57600080fd5b50565b610987816108c7565b811461099257600080fd5b5056fea26469706673582212200fba0db48e45c683a62e04d310273d5a8752e811f8ce0bcc751628da336374db64736f6c63430008040033",
  "linkReferences": {},
  "deployedLinkReferences": {}
}