{
  "_format": "hh-sol-artifact-1",
  "contractName": "TestProxyFactory",
  "sourceName": "contracts/TestProxyFactory.sol",
  "abi": [
    {
      "inputs": [
        {
          "internalType": "address",
          "name": "_implementation",
          "type": "address"
        }
      ],
      "stateMutability": "nonpayable",
      "type": "constructor"
    },
    {
      "anonymous": false,
      "inputs": [
        {
          "indexed": false,
          "internalType": "address",
          "name": "_owner",
          "type": "address"
        },
        {
          "indexed": false,
          "internalType": "address",
          "name": "_clone",
          "type": "address"
        }
      ],
      "name": "NewClone",
      "type": "event"
    },
    {
      "inputs": [
        {
          "internalType": "uint256",
          "name": "",
          "type": "uint256"
        }
      ],
      "name": "allClones",
      "outputs": [
        {
          "internalType": "address",
          "name": "",
          "type": "address"
        }
      ],
      "stateMutability": "view",
      "type": "function"
    },
    {
      "inputs": [
        {
          "internalType": "int256",
          "name": "_xAllocation",
          "type": "int256"
        },
        {
          "internalType": "int256",
          "name": "_yAllocation",
          "type": "int256"
        },
        {
          "internalType": "int256",
          "name": "_zAllocation",
          "type": "int256"
        }
      ],
      "name": "createNewProxy",
      "outputs": [
        {
          "internalType": "address",
          "name": "instance",
          "type": "address"
        }
      ],
      "stateMutability": "payable",
      "type": "function"
    },
    {
      "inputs": [],
      "name": "implementationContract",
      "outputs": [
        {
          "internalType": "address",
          "name": "",
          "type": "address"
        }
      ],
      "stateMutability": "view",
      "type": "function"
    }
  ],
  "bytecode": "0x608060405234801561001057600080fd5b506040516108963803806108968339818101604052810190610032919061008d565b806000806101000a81548173ffffffffffffffffffffffffffffffffffffffff021916908373ffffffffffffffffffffffffffffffffffffffff160217905550506100ff565b600081519050610087816100e8565b92915050565b60006020828403121561009f57600080fd5b60006100ad84828501610078565b91505092915050565b60006100c1826100c8565b9050919050565b600073ffffffffffffffffffffffffffffffffffffffff82169050919050565b6100f1816100b6565b81146100fc57600080fd5b50565b6107888061010e6000396000f3fe6080604052600436106100345760003560e01c806399e7d05614610039578063c7b1779614610064578063d7741cad14610094575b600080fd5b34801561004557600080fd5b5061004e6100d1565b60405161005b9190610569565b60405180910390f35b61007e60048036038101906100799190610445565b6100f5565b60405161008b9190610569565b60405180910390f35b3480156100a057600080fd5b506100bb60048036038101906100b69190610494565b610307565b6040516100c89190610569565b60405180910390f35b60008054906101000a900473ffffffffffffffffffffffffffffffffffffffff1681565b600061012060008054906101000a900473ffffffffffffffffffffffffffffffffffffffff16610346565b905060008173ffffffffffffffffffffffffffffffffffffffff16343387878760405160240161015394939291906105ad565b6040516020818303038152906040527f7b9c5b8e000000000000000000000000000000000000000000000000000000007bffffffffffffffffffffffffffffffffffffffffffffffffffffffff19166020820180517bffffffffffffffffffffffffffffffffffffffffffffffffffffffff83818316178352505050506040516101dd9190610552565b60006040518083038185875af1925050503d806000811461021a576040519150601f19603f3d011682016040523d82523d6000602084013e61021f565b606091505b5050905080610263576040517f08c379a000000000000000000000000000000000000000000000000000000000815260040161025a90610612565b60405180910390fd5b6001829080600181540180825580915050600190039060005260206000200160009091909190916101000a81548173ffffffffffffffffffffffffffffffffffffffff021916908373ffffffffffffffffffffffffffffffffffffffff1602179055507f3bf919a220a0f12ddcaf77fd06ffa4b9c728617774936f0d78b452010319c82433836040516102f7929190610584565b60405180910390a1509392505050565b6001818154811061031757600080fd5b906000526020600020016000915054906101000a900473ffffffffffffffffffffffffffffffffffffffff1681565b60006040517f3d602d80600a3d3981f3363d3d373d3d3d363d7300000000000000000000000081528260601b60148201527f5af43d82803e903d91602b57fd5bf3000000000000000000000000000000000060288201526037816000f0915050600073ffffffffffffffffffffffffffffffffffffffff168173ffffffffffffffffffffffffffffffffffffffff161415610416576040517f08c379a000000000000000000000000000000000000000000000000000000000815260040161040d906105f2565b60405180910390fd5b919050565b60008135905061042a81610724565b92915050565b60008135905061043f8161073b565b92915050565b60008060006060848603121561045a57600080fd5b60006104688682870161041b565b93505060206104798682870161041b565b925050604061048a8682870161041b565b9150509250925092565b6000602082840312156104a657600080fd5b60006104b484828501610430565b91505092915050565b6104c681610659565b82525050565b60006104d782610632565b6104e1818561063d565b93506104f181856020860161069f565b80840191505092915050565b6105068161066b565b82525050565b6000610519601683610648565b9150610524826106d2565b602082019050919050565b600061053c601b83610648565b9150610547826106fb565b602082019050919050565b600061055e82846104cc565b915081905092915050565b600060208201905061057e60008301846104bd565b92915050565b600060408201905061059960008301856104bd565b6105a660208301846104bd565b9392505050565b60006080820190506105c260008301876104bd565b6105cf60208301866104fd565b6105dc60408301856104fd565b6105e960608301846104fd565b95945050505050565b6000602082019050818103600083015261060b8161050c565b9050919050565b6000602082019050818103600083015261062b8161052f565b9050919050565b600081519050919050565b600081905092915050565b600082825260208201905092915050565b600061066482610675565b9050919050565b6000819050919050565b600073ffffffffffffffffffffffffffffffffffffffff82169050919050565b6000819050919050565b60005b838110156106bd5780820151818401526020810190506106a2565b838111156106cc576000848401525b50505050565b7f455243313136373a20637265617465206661696c656400000000000000000000600082015250565b7f50726f787920496e697469616c697a6174696f6e204661696c65640000000000600082015250565b61072d8161066b565b811461073857600080fd5b50565b61074481610695565b811461074f57600080fd5b5056fea26469706673582212200295dcdbc3d71befc1241131c6f783ad2592e913c6733104b81e26780e9adcfa64736f6c63430008040033",
  "linkReferences": {},
  "deployedLinkReferences": {}
}