{
  "_format": "hh-sol-artifact-1",
  "contractName": "Test",
  "sourceName": "contracts/Test.sol",
  "abi": [
    {
      "anonymous": false,
      "inputs": [
        {
          "indexed": false,
          "internalType": "uint8",
          "name": "version",
          "type": "uint8"
        }
      ],
      "name": "Initialized",
      "type": "event"
    },
    {
      "inputs": [],
      "name": "CDAIAllocation",
      "outputs": [
        {
          "internalType": "int256",
          "name": "",
          "type": "int256"
        }
      ],
      "stateMutability": "view",
      "type": "function"
    },
    {
      "inputs": [],
      "name": "CETHAllocation",
      "outputs": [
        {
          "internalType": "int256",
          "name": "",
          "type": "int256"
        }
      ],
      "stateMutability": "view",
      "type": "function"
    },
    {
      "inputs": [],
      "name": "CWBTCAllocation",
      "outputs": [
        {
          "internalType": "int256",
          "name": "",
          "type": "int256"
        }
      ],
      "stateMutability": "view",
      "type": "function"
    },
    {
      "inputs": [],
      "name": "check0Balances",
      "outputs": [
        {
          "internalType": "int256",
          "name": "ETHBalance",
          "type": "int256"
        },
        {
          "internalType": "int256",
          "name": "WETHBalance",
          "type": "int256"
        },
        {
          "internalType": "int256",
          "name": "WBTCBalance",
          "type": "int256"
        },
        {
          "internalType": "int256",
          "name": "DAIBalance",
          "type": "int256"
        }
      ],
      "stateMutability": "view",
      "type": "function"
    },
    {
      "inputs": [],
      "name": "getBalances",
      "outputs": [
        {
          "internalType": "int256",
          "name": "ETHBalance",
          "type": "int256"
        },
        {
          "internalType": "int256",
          "name": "WBTCBalance",
          "type": "int256"
        },
        {
          "internalType": "int256",
          "name": "DAIBalance",
          "type": "int256"
        }
      ],
      "stateMutability": "view",
      "type": "function"
    },
    {
      "inputs": [],
      "name": "getPrices",
      "outputs": [
        {
          "internalType": "int256",
          "name": "ETHPrice",
          "type": "int256"
        },
        {
          "internalType": "int256",
          "name": "BTCPrice",
          "type": "int256"
        },
        {
          "internalType": "int256",
          "name": "DAIPrice",
          "type": "int256"
        }
      ],
      "stateMutability": "view",
      "type": "function"
    },
    {
      "inputs": [],
      "name": "getTestData",
      "outputs": [
        {
          "internalType": "string",
          "name": "data",
          "type": "string"
        }
      ],
      "stateMutability": "pure",
      "type": "function"
    },
    {
      "inputs": [],
      "name": "getTestData2",
      "outputs": [
        {
          "internalType": "string",
          "name": "data",
          "type": "string"
        }
      ],
      "stateMutability": "pure",
      "type": "function"
    },
    {
      "inputs": [],
      "name": "getValues",
      "outputs": [
        {
          "internalType": "int256",
          "name": "ETHValue",
          "type": "int256"
        },
        {
          "internalType": "int256",
          "name": "BTCValue",
          "type": "int256"
        },
        {
          "internalType": "int256",
          "name": "DAIValue",
          "type": "int256"
        },
        {
          "internalType": "int256",
          "name": "totalValue",
          "type": "int256"
        }
      ],
      "stateMutability": "view",
      "type": "function"
    },
    {
      "inputs": [
        {
          "internalType": "address",
          "name": "_owner",
          "type": "address"
        },
        {
          "internalType": "int256",
          "name": "_CETHAllocation",
          "type": "int256"
        },
        {
          "internalType": "int256",
          "name": "_CWBTCAllocation",
          "type": "int256"
        },
        {
          "internalType": "int256",
          "name": "_CDAIAllocation",
          "type": "int256"
        }
      ],
      "name": "initialize",
      "outputs": [],
      "stateMutability": "payable",
      "type": "function"
    },
    {
      "inputs": [],
      "name": "owner",
      "outputs": [
        {
          "internalType": "address",
          "name": "",
          "type": "address"
        }
      ],
      "stateMutability": "view",
      "type": "function"
    },
    {
      "inputs": [],
      "name": "trySomethingElse",
      "outputs": [
        {
          "internalType": "int256",
          "name": "data",
          "type": "int256"
        }
      ],
      "stateMutability": "pure",
      "type": "function"
    },
    {
      "inputs": [
        {
          "internalType": "int256",
          "name": "_CETHAllocation",
          "type": "int256"
        },
        {
          "internalType": "int256",
          "name": "_CWBTCAllocation",
          "type": "int256"
        },
        {
          "internalType": "int256",
          "name": "_CDAIAllocation",
          "type": "int256"
        }
      ],
      "name": "updateAllocationsAndRebalance",
      "outputs": [],
      "stateMutability": "payable",
      "type": "function"
    },
    {
      "inputs": [],
      "name": "withdraw",
      "outputs": [],
      "stateMutability": "nonpayable",
      "type": "function"
    },
    {
      "stateMutability": "payable",
      "type": "receive"
    }
  ],
  "bytecode": "0x608060405273c778417e063141139fce010982780140aa0cd5ab600460006101000a81548173ffffffffffffffffffffffffffffffffffffffff021916908373ffffffffffffffffffffffffffffffffffffffff16021790555073577d296678535e4903d59a4c929b718e1d575e0a600560006101000a81548173ffffffffffffffffffffffffffffffffffffffff021916908373ffffffffffffffffffffffffffffffffffffffff160217905550735592ec0cfb4dbc12d3ab100b257153436a1f0fea600660006101000a81548173ffffffffffffffffffffffffffffffffffffffff021916908373ffffffffffffffffffffffffffffffffffffffff16021790555073d6801a1dffcd0a410336ef88def4320d6df1883e600760006101000a81548173ffffffffffffffffffffffffffffffffffffffff021916908373ffffffffffffffffffffffffffffffffffffffff1602179055507214f450b8ae7708593f4a46f8fa6e5d50620f96600860006101000a81548173ffffffffffffffffffffffffffffffffffffffff021916908373ffffffffffffffffffffffffffffffffffffffff160217905550736d7f0754ffeb405d23c51ce938289d4835be3b14600960006101000a81548173ffffffffffffffffffffffffffffffffffffffff021916908373ffffffffffffffffffffffffffffffffffffffff160217905550738a753747a1fa494ec906ce90e9f37563a8af630e600a60006101000a81548173ffffffffffffffffffffffffffffffffffffffff021916908373ffffffffffffffffffffffffffffffffffffffff16021790555073ece365b379e1dd183b20fc5f022230c044d51404600b60006101000a81548173ffffffffffffffffffffffffffffffffffffffff021916908373ffffffffffffffffffffffffffffffffffffffff160217905550732ba49aaa16e6afd2a993473cfb70fa8559b523cf600c60006101000a81548173ffffffffffffffffffffffffffffffffffffffff021916908373ffffffffffffffffffffffffffffffffffffffff16021790555073e592427a0aece92de3edee1f18e0157c05861564600d60006101000a81548173ffffffffffffffffffffffffffffffffffffffff021916908373ffffffffffffffffffffffffffffffffffffffff16021790555034801561036157600080fd5b50612d1a806103716000396000f3fe6080604052600436106100df5760003560e01c806366e4f7931161007f5780638da5cb5b116100595780638da5cb5b1461027e57806390d6e817146102a9578063b53c4a04146102d4578063bd9a548b146102f0576100e6565b806366e4f7931461020957806378d7a493146102375780637b9c5b8e14610262576100e6565b80633ccfd60b116100bb5780633ccfd60b1461017157806355e437da146101885780635bf18b82146101b35780636610f5ca146101de576100e6565b8062113e08146100eb578062a8b7df1461011857806319eb4a9014610143576100e6565b366100e657005b600080fd5b3480156100f757600080fd5b5061010061031d565b60405161010f9392919061264b565b60405180910390f35b34801561012457600080fd5b5061012d610333565b60405161013a91906126e2565b60405180910390f35b34801561014f57600080fd5b50610158610370565b6040516101689493929190612682565b60405180910390f35b34801561017d57600080fd5b506101866103eb565b005b34801561019457600080fd5b5061019d610744565b6040516101aa9190612630565b60405180910390f35b3480156101bf57600080fd5b506101c861074a565b6040516101d59190612630565b60405180910390f35b3480156101ea57600080fd5b506101f3610753565b60405161020091906126e2565b60405180910390f35b34801561021557600080fd5b5061021e610790565b60405161022e9493929190612682565b60405180910390f35b34801561024357600080fd5b5061024c6109a6565b6040516102599190612630565b60405180910390f35b61027c600480360381019061027791906121ef565b6109ac565b005b34801561028a57600080fd5b50610293610aeb565b6040516102a091906125ec565b60405180910390f35b3480156102b557600080fd5b506102be610b11565b6040516102cb9190612630565b60405180910390f35b6102ee60048036038101906102e9919061227b565b610b17565b005b3480156102fc57600080fd5b50610305610cbd565b6040516103149392919061264b565b60405180910390f35b6000806000600192506002915060039050909192565b60606040518060400160405280600e81526020017f5468697320697320746573742032000000000000000000000000000000000000815250905090565b600080600080600080600061038361031d565b9250925092506000806000610396610cbd565b92509250925082866103a891906128d2565b995081856103b691906128d2565b985080846103c491906128d2565b975087898b6103d3919061280d565b6103dd919061280d565b965050505050505090919293565b600060029054906101000a900473ffffffffffffffffffffffffffffffffffffffff1673ffffffffffffffffffffffffffffffffffffffff163373ffffffffffffffffffffffffffffffffffffffff161461047b576040517f08c379a000000000000000000000000000000000000000000000000000000000815260040161047290612744565b60405180910390fd5b610483610ed4565b6000600460009054906101000a900473ffffffffffffffffffffffffffffffffffffffff1673ffffffffffffffffffffffffffffffffffffffff166370a08231306040518263ffffffff1660e01b81526004016104e091906125ec565b60206040518083038186803b1580156104f857600080fd5b505afa15801561050c573d6000803e3d6000fd5b505050506040513d601f19601f8201168201806040525081019061053091906122ca565b9050600081111561067357600460009054906101000a900473ffffffffffffffffffffffffffffffffffffffff1673ffffffffffffffffffffffffffffffffffffffff16632e1a7d4d600460009054906101000a900473ffffffffffffffffffffffffffffffffffffffff1673ffffffffffffffffffffffffffffffffffffffff166370a08231306040518263ffffffff1660e01b81526004016105d491906125ec565b60206040518083038186803b1580156105ec57600080fd5b505afa158015610600573d6000803e3d6000fd5b505050506040513d601f19601f8201168201806040525081019061062491906122ca565b6040518263ffffffff1660e01b815260040161064091906127c0565b600060405180830381600087803b15801561065a57600080fd5b505af115801561066e573d6000803e3d6000fd5b505050505b60008060029054906101000a900473ffffffffffffffffffffffffffffffffffffffff1673ffffffffffffffffffffffffffffffffffffffff16476040516106ba906125d7565b60006040518083038185875af1925050503d80600081146106f7576040519150601f19603f3d011682016040523d82523d6000602084013e6106fc565b606091505b5050905080610740576040517f08c379a000000000000000000000000000000000000000000000000000000000815260040161073790612724565b60405180910390fd5b5050565b60015481565b60006003905090565b60606040518060400160405280600e81526020017f5468697320697320746573742031000000000000000000000000000000000000815250905090565b600080600080479350600460009054906101000a900473ffffffffffffffffffffffffffffffffffffffff1673ffffffffffffffffffffffffffffffffffffffff166370a08231306040518263ffffffff1660e01b81526004016107f491906125ec565b60206040518083038186803b15801561080c57600080fd5b505afa158015610820573d6000803e3d6000fd5b505050506040513d601f19601f8201168201806040525081019061084491906122ca565b9250600560009054906101000a900473ffffffffffffffffffffffffffffffffffffffff1673ffffffffffffffffffffffffffffffffffffffff166370a08231306040518263ffffffff1660e01b81526004016108a191906125ec565b60206040518083038186803b1580156108b957600080fd5b505afa1580156108cd573d6000803e3d6000fd5b505050506040513d601f19601f820116820180604052508101906108f191906122ca565b9150600660009054906101000a900473ffffffffffffffffffffffffffffffffffffffff1673ffffffffffffffffffffffffffffffffffffffff166370a08231306040518263ffffffff1660e01b815260040161094e91906125ec565b60206040518083038186803b15801561096657600080fd5b505afa15801561097a573d6000803e3d6000fd5b505050506040513d601f19601f8201168201806040525081019061099e91906122ca565b905090919293565b60035481565b60006109b86001611500565b905080156109dc576001600060016101000a81548160ff0219169083151502179055505b60648284866109eb919061280d565b6109f5919061280d565b14610a35576040517f08c379a0000000000000000000000000000000000000000000000000000000008152600401610a2c90612764565b60405180910390fd5b84600060026101000a81548173ffffffffffffffffffffffffffffffffffffffff021916908373ffffffffffffffffffffffffffffffffffffffff1602179055508360018190555082600281905550816003819055508015610ae45760008060016101000a81548160ff0219169083151502179055507f7f26b83ff96e1f2b6a682f133852f6798a09c465da95921460cefb38474024986001604051610adb91906126c7565b60405180910390a15b5050505050565b600060029054906101000a900473ffffffffffffffffffffffffffffffffffffffff1681565b60025481565b600060029054906101000a900473ffffffffffffffffffffffffffffffffffffffff1673ffffffffffffffffffffffffffffffffffffffff163373ffffffffffffffffffffffffffffffffffffffff1614610ba7576040517f08c379a0000000000000000000000000000000000000000000000000000000008152600401610b9e90612744565b60405180910390fd5b6064818385610bb6919061280d565b610bc0919061280d565b14610c00576040517f08c379a0000000000000000000000000000000000000000000000000000000008152600401610bf790612764565b60405180910390fd5b826001819055508160028190555080600381905550610c1d610ed4565b60004790506000811115610caf57600460009054906101000a900473ffffffffffffffffffffffffffffffffffffffff1673ffffffffffffffffffffffffffffffffffffffff1663d0e30db0826040518263ffffffff1660e01b81526004016000604051808303818588803b158015610c9557600080fd5b505af1158015610ca9573d6000803e3d6000fd5b50505050505b610cb76115f0565b50505050565b6000806000600a60009054906101000a900473ffffffffffffffffffffffffffffffffffffffff1673ffffffffffffffffffffffffffffffffffffffff1663feaf968c6040518163ffffffff1660e01b815260040160a06040518083038186803b158015610d2a57600080fd5b505afa158015610d3e573d6000803e3d6000fd5b505050506040513d601f19601f82011682018060405250810190610d6291906122f3565b909192935090915090505080935050600b60009054906101000a900473ffffffffffffffffffffffffffffffffffffffff1673ffffffffffffffffffffffffffffffffffffffff1663feaf968c6040518163ffffffff1660e01b815260040160a06040518083038186803b158015610dd957600080fd5b505afa158015610ded573d6000803e3d6000fd5b505050506040513d601f19601f82011682018060405250810190610e1191906122f3565b909192935090915090505080925050600c60009054906101000a900473ffffffffffffffffffffffffffffffffffffffff1673ffffffffffffffffffffffffffffffffffffffff1663feaf968c6040518163ffffffff1660e01b815260040160a06040518083038186803b158015610e8857600080fd5b505afa158015610e9c573d6000803e3d6000fd5b505050506040513d601f19601f82011682018060405250810190610ec091906122f3565b909192935090915090505080915050909192565b6000600760009054906101000a900473ffffffffffffffffffffffffffffffffffffffff1673ffffffffffffffffffffffffffffffffffffffff166370a08231306040518263ffffffff1660e01b8152600401610f3191906125ec565b60206040518083038186803b158015610f4957600080fd5b505afa158015610f5d573d6000803e3d6000fd5b505050506040513d601f19601f82011682018060405250810190610f8191906122ca565b90506000600860009054906101000a900473ffffffffffffffffffffffffffffffffffffffff1673ffffffffffffffffffffffffffffffffffffffff166370a08231306040518263ffffffff1660e01b8152600401610fe091906125ec565b60206040518083038186803b158015610ff857600080fd5b505afa15801561100c573d6000803e3d6000fd5b505050506040513d601f19601f8201168201806040525081019061103091906122ca565b90506000600960009054906101000a900473ffffffffffffffffffffffffffffffffffffffff1673ffffffffffffffffffffffffffffffffffffffff166370a08231306040518263ffffffff1660e01b815260040161108f91906125ec565b60206040518083038186803b1580156110a757600080fd5b505afa1580156110bb573d6000803e3d6000fd5b505050506040513d601f19601f820116820180604052508101906110df91906122ca565b9050600083111561119957600760009054906101000a900473ffffffffffffffffffffffffffffffffffffffff1673ffffffffffffffffffffffffffffffffffffffff1663db006a75846040518263ffffffff1660e01b815260040161114591906127c0565b602060405180830381600087803b15801561115f57600080fd5b505af1158015611173573d6000803e3d6000fd5b505050506040513d601f19601f8201168201806040525081019061119791906122ca565b505b600082111561134a57600860009054906101000a900473ffffffffffffffffffffffffffffffffffffffff1673ffffffffffffffffffffffffffffffffffffffff1663db006a75836040518263ffffffff1660e01b81526004016111fd91906127c0565b602060405180830381600087803b15801561121757600080fd5b505af115801561122b573d6000803e3d6000fd5b505050506040513d601f19601f8201168201806040525081019061124f91906122ca565b50611349600560009054906101000a900473ffffffffffffffffffffffffffffffffffffffff16600460009054906101000a900473ffffffffffffffffffffffffffffffffffffffff16600560009054906101000a900473ffffffffffffffffffffffffffffffffffffffff1673ffffffffffffffffffffffffffffffffffffffff166370a08231306040518263ffffffff1660e01b81526004016112f491906125ec565b60206040518083038186803b15801561130c57600080fd5b505afa158015611320573d6000803e3d6000fd5b505050506040513d601f19601f8201168201806040525081019061134491906122ca565b611e79565b5b60008111156114fb57600960009054906101000a900473ffffffffffffffffffffffffffffffffffffffff1673ffffffffffffffffffffffffffffffffffffffff1663db006a75826040518263ffffffff1660e01b81526004016113ae91906127c0565b602060405180830381600087803b1580156113c857600080fd5b505af11580156113dc573d6000803e3d6000fd5b505050506040513d601f19601f8201168201806040525081019061140091906122ca565b506114fa600660009054906101000a900473ffffffffffffffffffffffffffffffffffffffff16600460009054906101000a900473ffffffffffffffffffffffffffffffffffffffff16600660009054906101000a900473ffffffffffffffffffffffffffffffffffffffff1673ffffffffffffffffffffffffffffffffffffffff166370a08231306040518263ffffffff1660e01b81526004016114a591906125ec565b60206040518083038186803b1580156114bd57600080fd5b505afa1580156114d1573d6000803e3d6000fd5b505050506040513d601f19601f820116820180604052508101906114f591906122ca565b611e79565b5b505050565b60008060019054906101000a900460ff16156115775760018260ff1614801561152f575061152d30611ff9565b155b61156e576040517f08c379a000000000000000000000000000000000000000000000000000000000815260040161156590612784565b60405180910390fd5b600090506115eb565b8160ff1660008054906101000a900460ff1660ff16106115cc576040517f08c379a00000000000000000000000000000000000000000000000000000000081526004016115c390612784565b60405180910390fd5b816000806101000a81548160ff021916908360ff160217905550600190505b919050565b6000600460009054906101000a900473ffffffffffffffffffffffffffffffffffffffff1673ffffffffffffffffffffffffffffffffffffffff166370a08231306040518263ffffffff1660e01b815260040161164d91906125ec565b60206040518083038186803b15801561166557600080fd5b505afa158015611679573d6000803e3d6000fd5b505050506040513d601f19601f8201168201806040525081019061169d91906122ca565b905060006064600154836116b191906129e9565b6116bb91906128a1565b905060006064600254846116cf91906129e9565b6116d991906128a1565b905060006064600354856116ed91906129e9565b6116f791906128a1565b90506000600154131561181557600460009054906101000a900473ffffffffffffffffffffffffffffffffffffffff1673ffffffffffffffffffffffffffffffffffffffff16632e1a7d4d846040518263ffffffff1660e01b815260040161175f91906127c0565b600060405180830381600087803b15801561177957600080fd5b505af115801561178d573d6000803e3d6000fd5b50505050600760009054906101000a900473ffffffffffffffffffffffffffffffffffffffff1673ffffffffffffffffffffffffffffffffffffffff16631249c58b476040518263ffffffff1660e01b81526004016000604051808303818588803b1580156117fb57600080fd5b505af115801561180f573d6000803e3d6000fd5b50505050505b60006002541315611b445761186f600460009054906101000a900473ffffffffffffffffffffffffffffffffffffffff16600560009054906101000a900473ffffffffffffffffffffffffffffffffffffffff1684611e79565b600560009054906101000a900473ffffffffffffffffffffffffffffffffffffffff1673ffffffffffffffffffffffffffffffffffffffff1663095ea7b3600860009054906101000a900473ffffffffffffffffffffffffffffffffffffffff16600560009054906101000a900473ffffffffffffffffffffffffffffffffffffffff1673ffffffffffffffffffffffffffffffffffffffff166370a08231306040518263ffffffff1660e01b815260040161192b91906125ec565b60206040518083038186803b15801561194357600080fd5b505afa158015611957573d6000803e3d6000fd5b505050506040513d601f19601f8201168201806040525081019061197b91906122ca565b6040518363ffffffff1660e01b8152600401611998929190612607565b602060405180830381600087803b1580156119b257600080fd5b505af11580156119c6573d6000803e3d6000fd5b505050506040513d601f19601f820116820180604052508101906119ea9190612252565b50600860009054906101000a900473ffffffffffffffffffffffffffffffffffffffff1673ffffffffffffffffffffffffffffffffffffffff1663a0712d68600560009054906101000a900473ffffffffffffffffffffffffffffffffffffffff1673ffffffffffffffffffffffffffffffffffffffff166370a08231306040518263ffffffff1660e01b8152600401611a8491906125ec565b60206040518083038186803b158015611a9c57600080fd5b505afa158015611ab0573d6000803e3d6000fd5b505050506040513d601f19601f82011682018060405250810190611ad491906122ca565b6040518263ffffffff1660e01b8152600401611af091906127c0565b602060405180830381600087803b158015611b0a57600080fd5b505af1158015611b1e573d6000803e3d6000fd5b505050506040513d601f19601f82011682018060405250810190611b4291906122ca565b505b60006003541315611e7357611b9e600460009054906101000a900473ffffffffffffffffffffffffffffffffffffffff16600660009054906101000a900473ffffffffffffffffffffffffffffffffffffffff1683611e79565b600660009054906101000a900473ffffffffffffffffffffffffffffffffffffffff1673ffffffffffffffffffffffffffffffffffffffff1663095ea7b3600960009054906101000a900473ffffffffffffffffffffffffffffffffffffffff16600660009054906101000a900473ffffffffffffffffffffffffffffffffffffffff1673ffffffffffffffffffffffffffffffffffffffff166370a08231306040518263ffffffff1660e01b8152600401611c5a91906125ec565b60206040518083038186803b158015611c7257600080fd5b505afa158015611c86573d6000803e3d6000fd5b505050506040513d601f19601f82011682018060405250810190611caa91906122ca565b6040518363ffffffff1660e01b8152600401611cc7929190612607565b602060405180830381600087803b158015611ce157600080fd5b505af1158015611cf5573d6000803e3d6000fd5b505050506040513d601f19601f82011682018060405250810190611d199190612252565b50600960009054906101000a900473ffffffffffffffffffffffffffffffffffffffff1673ffffffffffffffffffffffffffffffffffffffff1663a0712d68600660009054906101000a900473ffffffffffffffffffffffffffffffffffffffff1673ffffffffffffffffffffffffffffffffffffffff166370a08231306040518263ffffffff1660e01b8152600401611db391906125ec565b60206040518083038186803b158015611dcb57600080fd5b505afa158015611ddf573d6000803e3d6000fd5b505050506040513d601f19601f82011682018060405250810190611e0391906122ca565b6040518263ffffffff1660e01b8152600401611e1f91906127c0565b602060405180830381600087803b158015611e3957600080fd5b505af1158015611e4d573d6000803e3d6000fd5b505050506040513d601f19601f82011682018060405250810190611e7191906122ca565b505b50505050565b611ea683600d60009054906101000a900473ffffffffffffffffffffffffffffffffffffffff168361201c565b60006040518061010001604052808573ffffffffffffffffffffffffffffffffffffffff1681526020018473ffffffffffffffffffffffffffffffffffffffff168152602001610bb862ffffff1681526020013073ffffffffffffffffffffffffffffffffffffffff16815260200142815260200183815260200160008152602001600073ffffffffffffffffffffffffffffffffffffffff168152509050600d60009054906101000a900473ffffffffffffffffffffffffffffffffffffffff1673ffffffffffffffffffffffffffffffffffffffff1663414bf389826040518263ffffffff1660e01b8152600401611fa091906127a4565b602060405180830381600087803b158015611fba57600080fd5b505af1158015611fce573d6000803e3d6000fd5b505050506040513d601f19601f82011682018060405250810190611ff291906122ca565b5050505050565b6000808273ffffffffffffffffffffffffffffffffffffffff163b119050919050565b6000808473ffffffffffffffffffffffffffffffffffffffff1663095ea7b360e01b8585604051602401612051929190612607565b604051602081830303815290604052907bffffffffffffffffffffffffffffffffffffffffffffffffffffffff19166020820180517bffffffffffffffffffffffffffffffffffffffffffffffffffffffff83818316178352505050506040516120bb91906125c0565b6000604051808303816000865af19150503d80600081146120f8576040519150601f19603f3d011682016040523d82523d6000602084013e6120fd565b606091505b509150915081801561212b575060008151148061212a5750808060200190518101906121299190612252565b5b5b61216a576040517f08c379a000000000000000000000000000000000000000000000000000000000815260040161216190612704565b60405180910390fd5b5050505050565b60008135905061218081612c71565b92915050565b60008151905061219581612c88565b92915050565b6000813590506121aa81612c9f565b92915050565b6000815190506121bf81612c9f565b92915050565b6000815190506121d481612cb6565b92915050565b6000815190506121e981612ccd565b92915050565b6000806000806080858703121561220557600080fd5b600061221387828801612171565b94505060206122248782880161219b565b93505060406122358782880161219b565b92505060606122468782880161219b565b91505092959194509250565b60006020828403121561226457600080fd5b600061227284828501612186565b91505092915050565b60008060006060848603121561229057600080fd5b600061229e8682870161219b565b93505060206122af8682870161219b565b92505060406122c08682870161219b565b9150509250925092565b6000602082840312156122dc57600080fd5b60006122ea848285016121c5565b91505092915050565b600080600080600060a0868803121561230b57600080fd5b6000612319888289016121da565b955050602061232a888289016121b0565b945050604061233b888289016121c5565b935050606061234c888289016121c5565b925050608061235d888289016121da565b9150509295509295909350565b61237381612a43565b82525050565b61238281612a43565b82525050565b6000612393826127db565b61239d81856127f1565b93506123ad818560208601612ad9565b80840191505092915050565b6123c281612a61565b82525050565b6123d181612ac7565b82525050565b60006123e2826127e6565b6123ec81856127fc565b93506123fc818560208601612ad9565b61240581612b6a565b840191505092915050565b600061241d6002836127fc565b915061242882612b7b565b602082019050919050565b6000612440601e836127fc565b915061244b82612ba4565b602082019050919050565b60006124636018836127fc565b915061246e82612bcd565b602082019050919050565b60006124866017836127fc565b915061249182612bf6565b602082019050919050565b60006124a9602e836127fc565b91506124b482612c1f565b604082019050919050565b60006124cc6000836127f1565b91506124d782612c6e565b600082019050919050565b610100820160008201516124f9600085018261236a565b50602082015161250c602085018261236a565b50604082015161251f6040850182612593565b506060820151612532606085018261236a565b50608082015161254560808501826125a2565b5060a082015161255860a08501826125a2565b5060c082015161256b60c08501826125a2565b5060e082015161257e60e0850182612584565b50505050565b61258d81612a6b565b82525050565b61259c81612a8b565b82525050565b6125ab81612a9a565b82525050565b6125ba81612a9a565b82525050565b60006125cc8284612388565b915081905092915050565b60006125e2826124bf565b9150819050919050565b60006020820190506126016000830184612379565b92915050565b600060408201905061261c6000830185612379565b61262960208301846125b1565b9392505050565b600060208201905061264560008301846123b9565b92915050565b600060608201905061266060008301866123b9565b61266d60208301856123b9565b61267a60408301846123b9565b949350505050565b600060808201905061269760008301876123b9565b6126a460208301866123b9565b6126b160408301856123b9565b6126be60608301846123b9565b95945050505050565b60006020820190506126dc60008301846123c8565b92915050565b600060208201905081810360008301526126fc81846123d7565b905092915050565b6000602082019050818103600083015261271d81612410565b9050919050565b6000602082019050818103600083015261273d81612433565b9050919050565b6000602082019050818103600083015261275d81612456565b9050919050565b6000602082019050818103600083015261277d81612479565b9050919050565b6000602082019050818103600083015261279d8161249c565b9050919050565b6000610100820190506127ba60008301846124e2565b92915050565b60006020820190506127d560008301846125b1565b92915050565b600081519050919050565b600081519050919050565b600081905092915050565b600082825260208201905092915050565b600061281882612a61565b915061282383612a61565b9250817f7fffffffffffffffffffffffffffffffffffffffffffffffffffffffffffffff0383136000831215161561285e5761285d612b0c565b5b817f800000000000000000000000000000000000000000000000000000000000000003831260008312161561289657612895612b0c565b5b828201905092915050565b60006128ac82612a9a565b91506128b783612a9a565b9250826128c7576128c6612b3b565b5b828204905092915050565b60006128dd82612a61565b91506128e883612a61565b9250827f7fffffffffffffffffffffffffffffffffffffffffffffffffffffffffffffff048211600084136000841316161561292757612926612b0c565b5b817f8000000000000000000000000000000000000000000000000000000000000000058312600084126000841316161561296457612963612b0c565b5b827f800000000000000000000000000000000000000000000000000000000000000005821260008413600084121616156129a1576129a0612b0c565b5b827f7fffffffffffffffffffffffffffffffffffffffffffffffffffffffffffffff05821260008412600084121616156129de576129dd612b0c565b5b828202905092915050565b60006129f482612a9a565b91506129ff83612a9a565b9250817fffffffffffffffffffffffffffffffffffffffffffffffffffffffffffffffff0483118215151615612a3857612a37612b0c565b5b828202905092915050565b6000612a4e82612a6b565b9050919050565b60008115159050919050565b6000819050919050565b600073ffffffffffffffffffffffffffffffffffffffff82169050919050565b600062ffffff82169050919050565b6000819050919050565b600060ff82169050919050565b600069ffffffffffffffffffff82169050919050565b6000612ad282612aa4565b9050919050565b60005b83811015612af7578082015181840152602081019050612adc565b83811115612b06576000848401525b50505050565b7f4e487b7100000000000000000000000000000000000000000000000000000000600052601160045260246000fd5b7f4e487b7100000000000000000000000000000000000000000000000000000000600052601260045260246000fd5b6000601f19601f8301169050919050565b7f5341000000000000000000000000000000000000000000000000000000000000600082015250565b7f7472616e7366657220746f206f776e657220756e7375636365737366756c0000600082015250565b7f6f6e6c79206f776e65722063616e2063616c6c20746869730000000000000000600082015250565b7f696e76616c696420616c6c6f636174696f6e732073756d000000000000000000600082015250565b7f496e697469616c697a61626c653a20636f6e747261637420697320616c72656160008201527f647920696e697469616c697a6564000000000000000000000000000000000000602082015250565b50565b612c7a81612a43565b8114612c8557600080fd5b50565b612c9181612a55565b8114612c9c57600080fd5b50565b612ca881612a61565b8114612cb357600080fd5b50565b612cbf81612a9a565b8114612cca57600080fd5b50565b612cd681612ab1565b8114612ce157600080fd5b5056fea2646970667358221220626f1e4f840702cb8be437661800b80529f902808ec91734f7db2466fc52a4ec64736f6c63430008040033",
  "linkReferences": {},
  "deployedLinkReferences": {}
}